{
  "contractName": "BuyTicket",
  "abi": [
    {
      "constant": true,
      "inputs": [],
      "name": "ETHUSDSTRING",
      "outputs": [
        {
          "name": "",
          "type": "string"
        }
      ],
      "payable": false,
      "stateMutability": "view",
      "type": "function"
    },
    {
      "constant": false,
      "inputs": [
        {
          "name": "_accountType",
          "type": "uint8"
        },
        {
          "name": "_username",
          "type": "string"
        },
        {
          "name": "_email",
          "type": "bytes32"
        }
      ],
      "name": "registerNewUser",
      "outputs": [],
      "payable": false,
      "stateMutability": "nonpayable",
      "type": "function"
    },
    {
      "constant": false,
      "inputs": [],
      "name": "getBalance",
      "outputs": [
        {
          "name": "_balance",
          "type": "uint256"
        }
      ],
      "payable": false,
      "stateMutability": "nonpayable",
      "type": "function"
    },
    {
      "constant": true,
      "inputs": [],
      "name": "getTicketsArraySize",
      "outputs": [
        {
          "name": "",
          "type": "uint256"
        }
      ],
      "payable": false,
      "stateMutability": "view",
      "type": "function"
    },
    {
      "constant": false,
      "inputs": [
        {
          "name": "myid",
          "type": "bytes32"
        },
        {
          "name": "result",
          "type": "string"
        }
      ],
      "name": "__callback",
      "outputs": [],
      "payable": false,
      "stateMutability": "nonpayable",
      "type": "function"
    },
    {
      "constant": false,
      "inputs": [
        {
          "name": "_id",
          "type": "uint256"
        },
        {
          "name": "_ticketsToSale",
          "type": "uint32"
        }
      ],
      "name": "modifyEventNoTickets",
      "outputs": [],
      "payable": false,
      "stateMutability": "nonpayable",
      "type": "function"
    },
    {
      "constant": true,
      "inputs": [
        {
          "name": "",
          "type": "uint256"
        }
      ],
      "name": "ticketToOwner",
      "outputs": [
        {
          "name": "",
          "type": "address"
        }
      ],
      "payable": false,
      "stateMutability": "view",
      "type": "function"
    },
    {
      "constant": false,
      "inputs": [
        {
          "name": "_id",
          "type": "uint256"
        },
        {
          "name": "_price",
          "type": "uint32"
        }
      ],
      "name": "modifyEventPrice",
      "outputs": [],
      "payable": false,
      "stateMutability": "nonpayable",
      "type": "function"
    },
    {
      "constant": false,
      "inputs": [
        {
          "name": "_id",
          "type": "uint256"
        },
        {
          "name": "_picture",
          "type": "string"
        }
      ],
      "name": "modifyEventPicture",
      "outputs": [],
      "payable": false,
      "stateMutability": "nonpayable",
      "type": "function"
    },
    {
      "constant": false,
      "inputs": [
        {
          "name": "myid",
          "type": "bytes32"
        },
        {
          "name": "result",
          "type": "string"
        },
        {
          "name": "proof",
          "type": "bytes"
        }
      ],
      "name": "__callback",
      "outputs": [],
      "payable": false,
      "stateMutability": "nonpayable",
      "type": "function"
    },
    {
      "constant": true,
      "inputs": [
        {
          "name": "",
          "type": "uint256"
        }
      ],
      "name": "eventToOwner",
      "outputs": [
        {
          "name": "",
          "type": "address"
        }
      ],
      "payable": false,
      "stateMutability": "view",
      "type": "function"
    },
    {
      "constant": false,
      "inputs": [],
      "name": "updatePrice",
      "outputs": [],
      "payable": true,
      "stateMutability": "payable",
      "type": "function"
    },
    {
      "constant": true,
      "inputs": [],
      "name": "getUsername",
      "outputs": [
        {
          "name": "",
          "type": "string"
        }
      ],
      "payable": false,
      "stateMutability": "view",
      "type": "function"
    },
    {
      "constant": true,
      "inputs": [],
      "name": "hasAccount",
      "outputs": [
        {
          "name": "",
          "type": "bool"
        }
      ],
      "payable": false,
      "stateMutability": "view",
      "type": "function"
    },
    {
      "constant": true,
      "inputs": [
        {
          "name": "",
          "type": "address"
        }
      ],
      "name": "ticketOwnerCount",
      "outputs": [
        {
          "name": "",
          "type": "uint256"
        }
      ],
      "payable": false,
      "stateMutability": "view",
      "type": "function"
    },
    {
      "constant": true,
      "inputs": [],
      "name": "accountType",
      "outputs": [
        {
          "name": "",
          "type": "uint256"
        }
      ],
      "payable": false,
      "stateMutability": "view",
      "type": "function"
    },
    {
      "constant": false,
      "inputs": [
        {
          "name": "_badUser",
          "type": "address"
        }
      ],
      "name": "removeUser",
      "outputs": [
        {
          "name": "success",
          "type": "bool"
        }
      ],
      "payable": false,
      "stateMutability": "nonpayable",
      "type": "function"
    },
    {
      "constant": false,
      "inputs": [
        {
          "name": "_id",
          "type": "uint256"
        },
        {
          "name": "_title",
          "type": "bytes32"
        }
      ],
      "name": "modifyEventTitle",
      "outputs": [],
      "payable": false,
      "stateMutability": "nonpayable",
      "type": "function"
    },
    {
      "constant": true,
      "inputs": [
        {
          "name": "",
          "type": "address"
        }
      ],
      "name": "eventOwnerCount",
      "outputs": [
        {
          "name": "",
          "type": "uint256"
        }
      ],
      "payable": false,
      "stateMutability": "view",
      "type": "function"
    },
    {
      "constant": true,
      "inputs": [
        {
          "name": "",
          "type": "address"
        }
      ],
      "name": "users",
      "outputs": [
        {
          "name": "owner",
          "type": "address"
        },
        {
          "name": "accountType",
          "type": "uint8"
        },
        {
          "name": "username",
          "type": "string"
        },
        {
          "name": "email",
          "type": "bytes32"
        }
      ],
      "payable": false,
      "stateMutability": "view",
      "type": "function"
    },
    {
      "constant": false,
      "inputs": [
        {
          "name": "_title",
          "type": "bytes32"
        },
        {
          "name": "_details",
          "type": "string"
        },
        {
          "name": "_picture",
          "type": "string"
        },
        {
          "name": "_ticketsToSale",
          "type": "uint32"
        },
        {
          "name": "_price",
          "type": "uint32"
        },
        {
          "name": "_allowResale",
          "type": "bool"
        }
      ],
      "name": "createEvent",
      "outputs": [],
      "payable": false,
      "stateMutability": "nonpayable",
      "type": "function"
    },
    {
      "constant": true,
      "inputs": [
        {
          "name": "",
          "type": "uint256"
        }
      ],
      "name": "ticketsArray",
      "outputs": [
        {
          "name": "owner",
          "type": "address"
        },
        {
          "name": "hash",
          "type": "address"
        },
        {
          "name": "price",
          "type": "uint256"
        },
        {
          "name": "forSale",
          "type": "bool"
        },
        {
          "name": "ticketId",
          "type": "uint256"
        },
        {
          "name": "eventId",
          "type": "uint256"
        }
      ],
      "payable": false,
      "stateMutability": "view",
      "type": "function"
    },
    {
      "constant": false,
      "inputs": [
        {
          "name": "_ticketId",
          "type": "uint256"
        },
        {
          "name": "_forSale",
          "type": "bool"
        },
        {
          "name": "_newSellingPrice",
          "type": "uint256"
        }
      ],
      "name": "setTicketForSale",
      "outputs": [],
      "payable": false,
      "stateMutability": "nonpayable",
      "type": "function"
    },
    {
      "constant": true,
      "inputs": [
        {
          "name": "",
          "type": "uint256"
        }
      ],
      "name": "eventArray",
      "outputs": [
        {
          "name": "owner",
          "type": "address"
        },
        {
          "name": "title",
          "type": "bytes32"
        },
        {
          "name": "description",
          "type": "string"
        },
        {
          "name": "picture",
          "type": "string"
        },
        {
          "name": "ticketsToSale",
          "type": "uint32"
        },
        {
          "name": "price",
          "type": "uint32"
        },
        {
          "name": "allowResale",
          "type": "bool"
        },
        {
          "name": "id",
          "type": "uint256"
        }
      ],
      "payable": false,
      "stateMutability": "view",
      "type": "function"
    },
    {
      "constant": true,
      "inputs": [],
      "name": "getEventArraySize",
      "outputs": [
        {
          "name": "",
          "type": "uint256"
        }
      ],
      "payable": false,
      "stateMutability": "view",
      "type": "function"
    },
    {
      "constant": false,
      "inputs": [
        {
          "name": "_id",
          "type": "uint256"
        },
        {
          "name": "_description",
          "type": "string"
        }
      ],
      "name": "modifyEventDescription",
      "outputs": [],
      "payable": false,
      "stateMutability": "nonpayable",
      "type": "function"
    },
    {
      "inputs": [],
      "payable": true,
      "stateMutability": "payable",
      "type": "constructor"
    },
    {
      "anonymous": false,
      "inputs": [
        {
          "indexed": false,
          "name": "noTickets",
          "type": "string"
        }
      ],
      "name": "NoTickets",
      "type": "event"
    },
    {
      "anonymous": false,
      "inputs": [
        {
          "indexed": false,
          "name": "price",
          "type": "string"
        }
      ],
      "name": "LogPriceUpdated",
      "type": "event"
    },
    {
      "anonymous": false,
      "inputs": [
        {
          "indexed": false,
          "name": "description",
          "type": "string"
        }
      ],
      "name": "LogNewOraclizeQuery",
      "type": "event"
    },
    {
      "anonymous": false,
      "inputs": [
        {
          "indexed": true,
          "name": "_owner",
          "type": "address"
        },
        {
          "indexed": true,
          "name": "_balance",
          "type": "uint256"
        }
      ],
      "name": "LogUpdate",
      "type": "event"
    },
    {
      "anonymous": false,
      "inputs": [
        {
          "indexed": false,
          "name": "eventId",
          "type": "uint256"
        },
        {
          "indexed": false,
          "name": "_account",
          "type": "address"
        },
        {
          "indexed": false,
          "name": "_title",
          "type": "bytes32"
        },
        {
          "indexed": false,
          "name": "_details",
          "type": "string"
        },
        {
          "indexed": false,
          "name": "_picture",
          "type": "string"
        },
        {
          "indexed": false,
          "name": "_ticketToSale",
          "type": "uint32"
        },
        {
          "indexed": false,
          "name": "_price",
          "type": "uint32"
        }
      ],
      "name": "NewEvent",
      "type": "event"
    },
    {
      "constant": false,
      "inputs": [
        {
          "name": "_eventId",
          "type": "uint256"
        },
        {
          "name": "moneyToTransfer",
          "type": "uint256"
        }
      ],
      "name": "buyTicket",
      "outputs": [],
      "payable": true,
      "stateMutability": "payable",
      "type": "function"
    },
    {
      "constant": false,
      "inputs": [
        {
          "name": "_ticketId",
          "type": "uint256"
        },
        {
          "name": "moneyToTransfer",
          "type": "uint256"
        }
      ],
      "name": "buyTicketForResale",
      "outputs": [],
      "payable": true,
      "stateMutability": "payable",
      "type": "function"
    }
  ],
  "bytecode": "0x60806040526000600455600060085533600160006101000a81548173ffffffffffffffffffffffffffffffffffffffff021916908373ffffffffffffffffffffffffffffffffffffffff16021790555033601160006101000a81548173ffffffffffffffffffffffffffffffffffffffff021916908373ffffffffffffffffffffffffffffffffffffffff1602179055503073ffffffffffffffffffffffffffffffffffffffff1631601160009054906101000a900473ffffffffffffffffffffffffffffffffffffffff1673ffffffffffffffffffffffffffffffffffffffff167fd176e7c6abd789c341ab22cef27aa1fbc7461f5f9d6a6e55faa0b9df32a7051460405160405180910390a373e2b2c6e4e5e23b0132dc35ec7e3f763a7c2098fe600c60006101000a81548173ffffffffffffffffffffffffffffffffffffffff021916908373ffffffffffffffffffffffffffffffffffffffff1602179055506144ea806101716000396000f300608060405260043610610169576000357c0100000000000000000000000000000000000000000000000000000000900463ffffffff1680624934521461016e578063061887bf146101fe57806312065fe01461025457806320a60b0e1461027f57806327dc297e146102aa578063298ec208146103215780632a9585e11461034b5780632b08e824146103885780632d1410b7146103f55780632f6fe8e01461043257806338bbfa50146104775780633ff9622214610534578063673a7e28146105a1578063681f3e6d146105ab5780638f76a3801461063b57806391a40b3f1461066a57806395eec3c9146106c157806398575188146106ec578063a463650d14610747578063a7ebe3bb14610782578063a80e59c1146107d9578063a87430ba14610803578063b056ad461461090e578063b4f8eadd1461099b578063b6c9610614610a5b578063b9c7a3b414610a9e578063bd4e64a014610c2a578063e96f54d314610c55575b600080fd5b34801561017a57600080fd5b50610183610c9a565b6040518080602001828103825283818151815260200191508051906020019080838360005b838110156101c35780820151818401526020810190506101a8565b50505050905090810190601f1680156101f05780820380516001836020036101000a031916815260200191505b509250505060405180910390f35b34801561020a57600080fd5b50610252600480360381019080803560ff1690602001909291908035906020019082018035906020019190919293919293908035600019169060200190929190505050610d38565b005b34801561026057600080fd5b50610269611047565b6040518082815260200191505060405180910390f35b34801561028b57600080fd5b50610294611066565b6040518082815260200191505060405180910390f35b3480156102b657600080fd5b5061031f6004803603810190808035600019169060200190929190803590602001908201803590602001908080601f0160208091040260200160405190810160405280939291908181526020018383808284378201915050505050509192919290505050611073565b005b610349600480360381019080803590602001909291908035906020019092919050505061116b565b005b34801561035757600080fd5b5061038660048036038101908080359060200190929190803563ffffffff1690602001909291905050506112f9565b005b34801561039457600080fd5b506103b360048036038101908080359060200190929190505050611414565b604051808273ffffffffffffffffffffffffffffffffffffffff1673ffffffffffffffffffffffffffffffffffffffff16815260200191505060405180910390f35b34801561040157600080fd5b5061043060048036038101908080359060200190929190803563ffffffff169060200190929190505050611447565b005b34801561043e57600080fd5b5061047560048036038101908080359060200190929190803590602001908201803590602001919091929391929390505050611562565b005b34801561048357600080fd5b506105326004803603810190808035600019169060200190929190803590602001908201803590602001908080601f0160208091040260200160405190810160405280939291908181526020018383808284378201915050505050509192919290803590602001908201803590602001908080601f016020809104026020016040519081016040528093929190818152602001838380828437820191505050505050919291929050505061166f565b005b34801561054057600080fd5b5061055f60048036038101908080359060200190929190505050611674565b604051808273ffffffffffffffffffffffffffffffffffffffff1673ffffffffffffffffffffffffffffffffffffffff16815260200191505060405180910390f35b6105a96116a7565b005b3480156105b757600080fd5b506105c061190f565b6040518080602001828103825283818151815260200191508051906020019080838360005b838110156106005780820151818401526020810190506105e5565b50505050905090810190601f16801561062d5780820380516001836020036101000a031916815260200191505b509250505060405180910390f35b34801561064757600080fd5b50610650611a8d565b604051808215151515815260200191505060405180910390f35b34801561067657600080fd5b506106ab600480360381019080803573ffffffffffffffffffffffffffffffffffffffff169060200190929190505050611ab0565b6040518082815260200191505060405180910390f35b3480156106cd57600080fd5b506106d6611ac8565b6040518082815260200191505060405180910390f35b3480156106f857600080fd5b5061072d600480360381019080803573ffffffffffffffffffffffffffffffffffffffff169060200190929190505050611b22565b604051808215151515815260200191505060405180910390f35b34801561075357600080fd5b50610780600480360381019080803590602001909291908035600019169060200190929190505050611c1e565b005b34801561078e57600080fd5b506107c3600480360381019080803573ffffffffffffffffffffffffffffffffffffffff169060200190929190505050611d23565b6040518082815260200191505060405180910390f35b6108016004803603810190808035906020019092919080359060200190929190505050611d3b565b005b34801561080f57600080fd5b50610844600480360381019080803573ffffffffffffffffffffffffffffffffffffffff16906020019092919050505061207e565b604051808573ffffffffffffffffffffffffffffffffffffffff1673ffffffffffffffffffffffffffffffffffffffff1681526020018460ff1660ff168152602001806020018360001916600019168152602001828103825284818151815260200191508051906020019080838360005b838110156108d05780820151818401526020810190506108b5565b50505050905090810190601f1680156108fd5780820380516001836020036101000a031916815260200191505b509550505050505060405180910390f35b34801561091a57600080fd5b506109996004803603810190808035600019169060200190929190803590602001908201803590602001919091929391929390803590602001908201803590602001919091929391929390803563ffffffff169060200190929190803563ffffffff169060200190929190803515159060200190929190505050612173565b005b3480156109a757600080fd5b506109c6600480360381019080803590602001909291905050506125d1565b604051808773ffffffffffffffffffffffffffffffffffffffff1673ffffffffffffffffffffffffffffffffffffffff1681526020018673ffffffffffffffffffffffffffffffffffffffff1673ffffffffffffffffffffffffffffffffffffffff16815260200185815260200184151515158152602001838152602001828152602001965050505050505060405180910390f35b348015610a6757600080fd5b50610a9c6004803603810190808035906020019092919080351515906020019092919080359060200190929190505050612669565b005b348015610aaa57600080fd5b50610ac9600480360381019080803590602001909291905050506128c1565b604051808973ffffffffffffffffffffffffffffffffffffffff1673ffffffffffffffffffffffffffffffffffffffff168152602001886000191660001916815260200180602001806020018763ffffffff1663ffffffff1681526020018663ffffffff1663ffffffff16815260200185151515158152602001848152602001838103835289818151815260200191508051906020019080838360005b83811015610b81578082015181840152602081019050610b66565b50505050905090810190601f168015610bae5780820380516001836020036101000a031916815260200191505b50838103825288818151815260200191508051906020019080838360005b83811015610be7578082015181840152602081019050610bcc565b50505050905090810190601f168015610c145780820380516001836020036101000a031916815260200191505b509a505050505050505050505060405180910390f35b348015610c3657600080fd5b50610c3f612a95565b6040518082815260200191505060405180910390f35b348015610c6157600080fd5b50610c9860048036038101908080359060200190929190803590602001908201803590602001919091929391929390505050612aa2565b005b60128054600181600116156101000203166002900480601f016020809104026020016040519081016040528092919081815260200182805460018160011615610100020316600290048015610d305780601f10610d0557610100808354040283529160200191610d30565b820191906000526020600020905b815481529060010190602001808311610d1357829003601f168201915b505050505081565b3373ffffffffffffffffffffffffffffffffffffffff16600260003373ffffffffffffffffffffffffffffffffffffffff1673ffffffffffffffffffffffffffffffffffffffff16815260200190815260200160002060000160009054906101000a900473ffffffffffffffffffffffffffffffffffffffff1673ffffffffffffffffffffffffffffffffffffffff1614151515610dd557600080fd5b6000600260003373ffffffffffffffffffffffffffffffffffffffff1673ffffffffffffffffffffffffffffffffffffffff168152602001908152602001600020600101805460018160011615610100020316600290049050148015610e3f575060008383905014155b1561104157600015156003848460405180838380828437820191505092505050908152602001604051809103902060009054906101000a900460ff161515141515610e8957600080fd5b33600260003373ffffffffffffffffffffffffffffffffffffffff1673ffffffffffffffffffffffffffffffffffffffff16815260200190815260200160002060000160006101000a81548173ffffffffffffffffffffffffffffffffffffffff021916908373ffffffffffffffffffffffffffffffffffffffff16021790555083600260003373ffffffffffffffffffffffffffffffffffffffff1673ffffffffffffffffffffffffffffffffffffffff16815260200190815260200160002060000160146101000a81548160ff021916908360ff1602179055508282600260003373ffffffffffffffffffffffffffffffffffffffff1673ffffffffffffffffffffffffffffffffffffffff1681526020019081526020016000206001019190610fb69291906142d1565b5080600260003373ffffffffffffffffffffffffffffffffffffffff1673ffffffffffffffffffffffffffffffffffffffff168152602001908152602001600020600201816000191690555060016003848460405180838380828437820191505092505050908152602001604051809103902060006101000a81548160ff0219169083151502179055505b50505050565b60003073ffffffffffffffffffffffffffffffffffffffff1631905090565b6000600980549050905090565b61107b612baf565b73ffffffffffffffffffffffffffffffffffffffff163373ffffffffffffffffffffffffffffffffffffffff161415156110b457600080fd5b80601290805190602001906110ca929190614351565b507f71f1a5645e51a2da828ffcf79cc17da88eb25e1bca8b9dced23210847a4769c1816040518080602001828103825283818151815260200191508051906020019080838360005b8381101561112d578082015181840152602081019050611112565b50505050905090810190601f16801561115a5780820380516001836020036101000a031916815260200191505b509250505060405180910390a15050565b6001611175611ac8565b14151561118157600080fd5b600060058381548110151561119257fe5b906000526020600020906006020160040160009054906101000a900463ffffffff1663ffffffff161115156111c657600080fd5b80341415156111d457600080fd5b6005828154811015156111e357fe5b906000526020600020906006020160000160009054906101000a900473ffffffffffffffffffffffffffffffffffffffff1673ffffffffffffffffffffffffffffffffffffffff166108fc349081150290604051600060405180830381858888f1935050505015801561125a573d6000803e3d6000fd5b5060058281548110151561126a57fe5b9060005260206000209060060201600401600081819054906101000a900463ffffffff16809291906001900391906101000a81548163ffffffff021916908363ffffffff160217905550506112f56005838154811015156112c757fe5b906000526020600020906006020160040160049054906101000a900463ffffffff1663ffffffff1683612f11565b5050565b816006600082815260200190815260200160002060009054906101000a900473ffffffffffffffffffffffffffffffffffffffff1673ffffffffffffffffffffffffffffffffffffffff163373ffffffffffffffffffffffffffffffffffffffff161415156113d0576040517f08c379a000000000000000000000000000000000000000000000000000000000815260040180806020018281038252601b8152602001807f4f6e6c7920746865206f776e65722063616e20646f20746869732e000000000081525060200191505060405180910390fd5b816005848154811015156113e057fe5b906000526020600020906006020160040160006101000a81548163ffffffff021916908363ffffffff160217905550505050565b600a6020528060005260406000206000915054906101000a900473ffffffffffffffffffffffffffffffffffffffff1681565b816006600082815260200190815260200160002060009054906101000a900473ffffffffffffffffffffffffffffffffffffffff1673ffffffffffffffffffffffffffffffffffffffff163373ffffffffffffffffffffffffffffffffffffffff1614151561151e576040517f08c379a000000000000000000000000000000000000000000000000000000000815260040180806020018281038252601b8152602001807f4f6e6c7920746865206f776e65722063616e20646f20746869732e000000000081525060200191505060405180910390fd5b8160058481548110151561152e57fe5b906000526020600020906006020160040160046101000a81548163ffffffff021916908363ffffffff160217905550505050565b826006600082815260200190815260200160002060009054906101000a900473ffffffffffffffffffffffffffffffffffffffff1673ffffffffffffffffffffffffffffffffffffffff163373ffffffffffffffffffffffffffffffffffffffff16141515611639576040517f08c379a000000000000000000000000000000000000000000000000000000000815260040180806020018281038252601b8152602001807f4f6e6c7920746865206f776e65722063616e20646f20746869732e000000000081525060200191505060405180910390fd5b828260058681548110151561164a57fe5b906000526020600020906006020160030191906116689291906142d1565b5050505050565b505050565b60066020528060005260406000206000915054906101000a900473ffffffffffffffffffffffffffffffffffffffff1681565b3073ffffffffffffffffffffffffffffffffffffffff16316116fd6040805190810160405280600381526020017f55524c0000000000000000000000000000000000000000000000000000000000815250613182565b11156117bc577f621c2856e3b87f81235f8ac8a22bbb40a0142961960710d00b2b6c380902b57e60405180806020018281038252604b8152602001807f4f7261636c697a6520717565727920776173204e4f542073656e742c20706c6581526020017f6173652061646420736f6d652045544820746f20636f76657220666f7220746881526020017f652071756572792066656500000000000000000000000000000000000000000081525060600191505060405180910390a161190d565b7f621c2856e3b87f81235f8ac8a22bbb40a0142961960710d00b2b6c380902b57e6040518080602001828103825260358152602001807f4f7261636c697a65207175657279207761732073656e742c207374616e64696e81526020017f6720627920666f722074686520616e737765722e2e000000000000000000000081525060400191505060405180910390a161190b6040805190810160405280600381526020017f55524c0000000000000000000000000000000000000000000000000000000000815250608060405190810160405280604181526020017f6a736f6e2868747470733a2f2f6170692e636f696e626173652e636f6d2f763281526020017f2f7072696365732f4554482d5553442f73706f74292e646174612e616d6f756e81526020017f7400000000000000000000000000000000000000000000000000000000000000815250613556565b505b565b60603373ffffffffffffffffffffffffffffffffffffffff16600260003373ffffffffffffffffffffffffffffffffffffffff1673ffffffffffffffffffffffffffffffffffffffff16815260200190815260200160002060000160009054906101000a900473ffffffffffffffffffffffffffffffffffffffff1673ffffffffffffffffffffffffffffffffffffffff161415156119ad57600080fd5b600260003373ffffffffffffffffffffffffffffffffffffffff1673ffffffffffffffffffffffffffffffffffffffff1681526020019081526020016000206001018054600181600116156101000203166002900480601f016020809104026020016040519081016040528092919081815260200182805460018160011615610100020316600290048015611a835780601f10611a5857610100808354040283529160200191611a83565b820191906000526020600020905b815481529060010190602001808311611a6657829003601f168201915b5050505050905090565b600080600190506000611a9e611ac8565b1415611aa957600090505b8091505090565b600b6020528060005260406000206000915090505481565b6000600260003373ffffffffffffffffffffffffffffffffffffffff1673ffffffffffffffffffffffffffffffffffffffff16815260200190815260200160002060000160149054906101000a900460ff1660ff16905090565b6000600160009054906101000a900473ffffffffffffffffffffffffffffffffffffffff1673ffffffffffffffffffffffffffffffffffffffff163373ffffffffffffffffffffffffffffffffffffffff16141515611b8057600080fd5b600260008373ffffffffffffffffffffffffffffffffffffffff1673ffffffffffffffffffffffffffffffffffffffff168152602001908152602001600020600080820160006101000a81549073ffffffffffffffffffffffffffffffffffffffff02191690556000820160146101000a81549060ff0219169055600182016000611c0b91906143d1565b6002820160009055505060019050919050565b816006600082815260200190815260200160002060009054906101000a900473ffffffffffffffffffffffffffffffffffffffff1673ffffffffffffffffffffffffffffffffffffffff163373ffffffffffffffffffffffffffffffffffffffff16141515611cf5576040517f08c379a000000000000000000000000000000000000000000000000000000000815260040180806020018281038252601b8152602001807f4f6e6c7920746865206f776e65722063616e20646f20746869732e000000000081525060200191505060405180910390fd5b81600584815481101515611d0557fe5b90600052602060002090600602016001018160001916905550505050565b60076020528060005260406000206000915090505481565b6001611d45611ac8565b141515611d5157600080fd5b3373ffffffffffffffffffffffffffffffffffffffff16600983815481101515611d7757fe5b906000526020600020906006020160000160009054906101000a900473ffffffffffffffffffffffffffffffffffffffff1673ffffffffffffffffffffffffffffffffffffffff1614151515611dcc57600080fd5b60011515600983815481101515611ddf57fe5b906000526020600020906006020160030160009054906101000a900460ff161515141515611e0c57600080fd5b8034141515611e1a57600080fd5b6005600983815481101515611e2b57fe5b906000526020600020906006020160050154815481101515611e4957fe5b906000526020600020906006020160000160009054906101000a900473ffffffffffffffffffffffffffffffffffffffff1673ffffffffffffffffffffffffffffffffffffffff166108fc606434600502811515611ea357fe5b049081150290604051600060405180830381858888f19350505050158015611ecf573d6000803e3d6000fd5b50600982815481101515611edf57fe5b906000526020600020906006020160000160009054906101000a900473ffffffffffffffffffffffffffffffffffffffff1673ffffffffffffffffffffffffffffffffffffffff166108fc349081150290604051600060405180830381858888f19350505050158015611f56573d6000803e3d6000fd5b5033600983815481101515611f6757fe5b906000526020600020906006020160000160006101000a81548173ffffffffffffffffffffffffffffffffffffffff021916908373ffffffffffffffffffffffffffffffffffffffff1602179055506000600983815481101515611fc757fe5b906000526020600020906006020160030160006101000a81548160ff02191690831515021790555080600983815481101515611fff57fe5b90600052602060002090600602016002018190555061201c613afc565b60098381548110151561202b57fe5b906000526020600020906006020160010160006101000a81548173ffffffffffffffffffffffffffffffffffffffff021916908373ffffffffffffffffffffffffffffffffffffffff1602179055505050565b60026020528060005260406000206000915090508060000160009054906101000a900473ffffffffffffffffffffffffffffffffffffffff16908060000160149054906101000a900460ff1690806001018054600181600116156101000203166002900480601f0160208091040260200160405190810160405280929190818152602001828054600181600116156101000203166002900480156121635780601f1061213857610100808354040283529160200191612163565b820191906000526020600020905b81548152906001019060200180831161214657829003601f168201915b5050505050908060020154905084565b600060028060003373ffffffffffffffffffffffffffffffffffffffff1673ffffffffffffffffffffffffffffffffffffffff16815260200190815260200160002060000160149054906101000a900460ff1660ff161415156121d557600080fd5b60016005610100604051908101604052803373ffffffffffffffffffffffffffffffffffffffff1681526020018c6000191681526020018b8b8080601f016020809104026020016040519081016040528093929190818152602001838380828437820191505050505050815260200189898080601f01602080910402602001604051908101604052809392919081815260200183838082843782019150505050505081526020018763ffffffff1681526020018663ffffffff16815260200185151581526020016004548152509080600181540180825580915050906001820390600052602060002090600602016000909192909190915060008201518160000160006101000a81548173ffffffffffffffffffffffffffffffffffffffff021916908373ffffffffffffffffffffffffffffffffffffffff160217905550602082015181600101906000191690556040820151816002019080519060200190612340929190614419565b50606082015181600301908051906020019061235d929190614419565b5060808201518160040160006101000a81548163ffffffff021916908363ffffffff16021790555060a08201518160040160046101000a81548163ffffffff021916908363ffffffff16021790555060c08201518160040160086101000a81548160ff02191690831515021790555060e082015181600501555050039050336006600083815260200190815260200160002060006101000a81548173ffffffffffffffffffffffffffffffffffffffff021916908373ffffffffffffffffffffffffffffffffffffffff1602179055506124436001600454613c9b90919063ffffffff16565b60048190555061249c6001600760003373ffffffffffffffffffffffffffffffffffffffff1673ffffffffffffffffffffffffffffffffffffffff16815260200190815260200160002054613c9b90919063ffffffff16565b600760003373ffffffffffffffffffffffffffffffffffffffff1673ffffffffffffffffffffffffffffffffffffffff168152602001908152602001600020819055507fbdcfb372a04d92208c9311496eadb40d741bb0c3641cbd80e3a6f7f312155b6f81338b8b8b8b8b8b8b604051808a81526020018973ffffffffffffffffffffffffffffffffffffffff1673ffffffffffffffffffffffffffffffffffffffff168152602001886000191660001916815260200180602001806020018563ffffffff1663ffffffff1681526020018463ffffffff1663ffffffff16815260200183810383528989828181526020019250808284378201915050838103825287878281815260200192508082843782019150509b50505050505050505050505060405180910390a1505050505050505050565b6009818154811015156125e057fe5b90600052602060002090600602016000915090508060000160009054906101000a900473ffffffffffffffffffffffffffffffffffffffff16908060010160009054906101000a900473ffffffffffffffffffffffffffffffffffffffff16908060020154908060030160009054906101000a900460ff16908060040154908060050154905086565b82600a600082815260200190815260200160002060009054906101000a900473ffffffffffffffffffffffffffffffffffffffff1673ffffffffffffffffffffffffffffffffffffffff163373ffffffffffffffffffffffffffffffffffffffff16141515612740576040517f08c379a000000000000000000000000000000000000000000000000000000000815260040180806020018281038252601b8152602001807f4f6e6c7920746865206f776e65722063616e20646f20746869732e000000000081525060200191505060405180910390fd5b60011515600560098681548110151561275557fe5b90600052602060002090600602016005015481548110151561277357fe5b906000526020600020906006020160040160089054906101000a900460ff1615151415156127a057600080fd5b600115156009858154811015156127b357fe5b906000526020600020906006020160030160009054906101000a900460ff161515141561282a57600015158315151415156127ed57600080fd5b826009858154811015156127fd57fe5b906000526020600020906006020160030160006101000a81548160ff0219169083151502179055506128bb565b6000151560098581548110151561283d57fe5b906000526020600020906006020160030160009054906101000a900460ff16151514156128ba576001151583151514151561287757600080fd5b8260098581548110151561288757fe5b906000526020600020906006020160030160006101000a81548160ff0219169083151502179055506128b98483613cb9565b5b5b50505050565b6005818154811015156128d057fe5b90600052602060002090600602016000915090508060000160009054906101000a900473ffffffffffffffffffffffffffffffffffffffff1690806001015490806002018054600181600116156101000203166002900480601f0160208091040260200160405190810160405280929190818152602001828054600181600116156101000203166002900480156129a85780601f1061297d576101008083540402835291602001916129a8565b820191906000526020600020905b81548152906001019060200180831161298b57829003601f168201915b505050505090806003018054600181600116156101000203166002900480601f016020809104026020016040519081016040528092919081815260200182805460018160011615610100020316600290048015612a465780601f10612a1b57610100808354040283529160200191612a46565b820191906000526020600020905b815481529060010190602001808311612a2957829003601f168201915b5050505050908060040160009054906101000a900463ffffffff16908060040160049054906101000a900463ffffffff16908060040160089054906101000a900460ff16908060050154905088565b6000600580549050905090565b826006600082815260200190815260200160002060009054906101000a900473ffffffffffffffffffffffffffffffffffffffff1673ffffffffffffffffffffffffffffffffffffffff163373ffffffffffffffffffffffffffffffffffffffff16141515612b79576040517f08c379a000000000000000000000000000000000000000000000000000000000815260040180806020018281038252601b8152602001807f4f6e6c7920746865206f776e65722063616e20646f20746869732e000000000081525060200191505060405180910390fd5b8282600586815481101515612b8a57fe5b90600052602060002090600602016002019190612ba89291906142d1565b5050505050565b600080600c60009054906101000a900473ffffffffffffffffffffffffffffffffffffffff1673ffffffffffffffffffffffffffffffffffffffff161480612c2157506000612c1f600c60009054906101000a900473ffffffffffffffffffffffffffffffffffffffff16613e05565b145b15612c3257612c306000613e10565b505b600c60009054906101000a900473ffffffffffffffffffffffffffffffffffffffff1673ffffffffffffffffffffffffffffffffffffffff166338cc48316040518163ffffffff167c0100000000000000000000000000000000000000000000000000000000028152600401602060405180830381600087803b158015612cb857600080fd5b505af1158015612ccc573d6000803e3d6000fd5b505050506040513d6020811015612ce257600080fd5b810190808051906020019092919050505073ffffffffffffffffffffffffffffffffffffffff16600d60009054906101000a900473ffffffffffffffffffffffffffffffffffffffff1673ffffffffffffffffffffffffffffffffffffffff16141515612e4b57600c60009054906101000a900473ffffffffffffffffffffffffffffffffffffffff1673ffffffffffffffffffffffffffffffffffffffff166338cc48316040518163ffffffff167c0100000000000000000000000000000000000000000000000000000000028152600401602060405180830381600087803b158015612dcf57600080fd5b505af1158015612de3573d6000803e3d6000fd5b505050506040513d6020811015612df957600080fd5b8101908080519060200190929190505050600d60006101000a81548173ffffffffffffffffffffffffffffffffffffffff021916908373ffffffffffffffffffffffffffffffffffffffff1602179055505b600d60009054906101000a900473ffffffffffffffffffffffffffffffffffffffff1673ffffffffffffffffffffffffffffffffffffffff1663c281d19e6040518163ffffffff167c0100000000000000000000000000000000000000000000000000000000028152600401602060405180830381600087803b158015612ed157600080fd5b505af1158015612ee5573d6000803e3d6000fd5b505050506040513d6020811015612efb57600080fd5b8101908080519060200190929190505050905090565b60006001600960c0604051908101604052803373ffffffffffffffffffffffffffffffffffffffff168152602001612f47613afc565b73ffffffffffffffffffffffffffffffffffffffff1681526020018681526020016000151581526020016008548152602001858152509080600181540180825580915050906001820390600052602060002090600602016000909192909190915060008201518160000160006101000a81548173ffffffffffffffffffffffffffffffffffffffff021916908373ffffffffffffffffffffffffffffffffffffffff16021790555060208201518160010160006101000a81548173ffffffffffffffffffffffffffffffffffffffff021916908373ffffffffffffffffffffffffffffffffffffffff1602179055506040820151816002015560608201518160030160006101000a81548160ff0219169083151502179055506080820151816004015560a08201518160050155505003905033600a600083815260200190815260200160002060006101000a81548173ffffffffffffffffffffffffffffffffffffffff021916908373ffffffffffffffffffffffffffffffffffffffff16021790555061311e6001600b60003373ffffffffffffffffffffffffffffffffffffffff1673ffffffffffffffffffffffffffffffffffffffff16815260200190815260200160002054613c9b90919063ffffffff16565b600b60003373ffffffffffffffffffffffffffffffffffffffff1673ffffffffffffffffffffffffffffffffffffffff168152602001908152602001600020819055506131776001600854613c9b90919063ffffffff16565b600881905550505050565b600080600c60009054906101000a900473ffffffffffffffffffffffffffffffffffffffff1673ffffffffffffffffffffffffffffffffffffffff1614806131f4575060006131f2600c60009054906101000a900473ffffffffffffffffffffffffffffffffffffffff16613e05565b145b15613205576132036000613e10565b505b600c60009054906101000a900473ffffffffffffffffffffffffffffffffffffffff1673ffffffffffffffffffffffffffffffffffffffff166338cc48316040518163ffffffff167c0100000000000000000000000000000000000000000000000000000000028152600401602060405180830381600087803b15801561328b57600080fd5b505af115801561329f573d6000803e3d6000fd5b505050506040513d60208110156132b557600080fd5b810190808051906020019092919050505073ffffffffffffffffffffffffffffffffffffffff16600d60009054906101000a900473ffffffffffffffffffffffffffffffffffffffff1673ffffffffffffffffffffffffffffffffffffffff1614151561341e57600c60009054906101000a900473ffffffffffffffffffffffffffffffffffffffff1673ffffffffffffffffffffffffffffffffffffffff166338cc48316040518163ffffffff167c0100000000000000000000000000000000000000000000000000000000028152600401602060405180830381600087803b1580156133a257600080fd5b505af11580156133b6573d6000803e3d6000fd5b505050506040513d60208110156133cc57600080fd5b8101908080519060200190929190505050600d60006101000a81548173ffffffffffffffffffffffffffffffffffffffff021916908373ffffffffffffffffffffffffffffffffffffffff1602179055505b600d60009054906101000a900473ffffffffffffffffffffffffffffffffffffffff1673ffffffffffffffffffffffffffffffffffffffff1663524f3889836040518263ffffffff167c01000000000000000000000000000000000000000000000000000000000281526004018080602001828103825283818151815260200191508051906020019080838360005b838110156134c85780820151818401526020810190506134ad565b50505050905090810190601f1680156134f55780820380516001836020036101000a031916815260200191505b5092505050602060405180830381600087803b15801561351457600080fd5b505af1158015613528573d6000803e3d6000fd5b505050506040513d602081101561353e57600080fd5b81019080805190602001909291905050509050919050565b6000806000600c60009054906101000a900473ffffffffffffffffffffffffffffffffffffffff1673ffffffffffffffffffffffffffffffffffffffff1614806135ca575060006135c8600c60009054906101000a900473ffffffffffffffffffffffffffffffffffffffff16613e05565b145b156135db576135d96000613e10565b505b600c60009054906101000a900473ffffffffffffffffffffffffffffffffffffffff1673ffffffffffffffffffffffffffffffffffffffff166338cc48316040518163ffffffff167c0100000000000000000000000000000000000000000000000000000000028152600401602060405180830381600087803b15801561366157600080fd5b505af1158015613675573d6000803e3d6000fd5b505050506040513d602081101561368b57600080fd5b810190808051906020019092919050505073ffffffffffffffffffffffffffffffffffffffff16600d60009054906101000a900473ffffffffffffffffffffffffffffffffffffffff1673ffffffffffffffffffffffffffffffffffffffff161415156137f457600c60009054906101000a900473ffffffffffffffffffffffffffffffffffffffff1673ffffffffffffffffffffffffffffffffffffffff166338cc48316040518163ffffffff167c0100000000000000000000000000000000000000000000000000000000028152600401602060405180830381600087803b15801561377857600080fd5b505af115801561378c573d6000803e3d6000fd5b505050506040513d60208110156137a257600080fd5b8101908080519060200190929190505050600d60006101000a81548173ffffffffffffffffffffffffffffffffffffffff021916908373ffffffffffffffffffffffffffffffffffffffff1602179055505b600d60009054906101000a900473ffffffffffffffffffffffffffffffffffffffff1673ffffffffffffffffffffffffffffffffffffffff1663524f3889856040518263ffffffff167c01000000000000000000000000000000000000000000000000000000000281526004018080602001828103825283818151815260200191508051906020019080838360005b8381101561389e578082015181840152602081019050613883565b50505050905090810190601f1680156138cb5780820380516001836020036101000a031916815260200191505b5092505050602060405180830381600087803b1580156138ea57600080fd5b505af11580156138fe573d6000803e3d6000fd5b505050506040513d602081101561391457600080fd5b8101908080519060200190929190505050905062030d403a02670de0b6b3a76400000181111561394a5760006001029150613af5565b600d60009054906101000a900473ffffffffffffffffffffffffffffffffffffffff1673ffffffffffffffffffffffffffffffffffffffff1663adf59f9982600087876040518563ffffffff167c0100000000000000000000000000000000000000000000000000000000028152600401808481526020018060200180602001838103835285818151815260200191508051906020019080838360005b83811015613a025780820151818401526020810190506139e7565b50505050905090810190601f168015613a2f5780820380516001836020036101000a031916815260200191505b50838103825284818151815260200191508051906020019080838360005b83811015613a68578082015181840152602081019050613a4d565b50505050905090810190601f168015613a955780820380516001836020036101000a031916815260200191505b50955050505050506020604051808303818588803b158015613ab657600080fd5b505af1158015613aca573d6000803e3d6000fd5b50505050506040513d6020811015613ae157600080fd5b810190808051906020019092919050505091505b5092915050565b6000806000806000809350334285604051602001808473ffffffffffffffffffffffffffffffffffffffff1673ffffffffffffffffffffffffffffffffffffffff166c0100000000000000000000000002815260140183815260200182815260200193505050506040516020818303038152906040526040518082805190602001908083835b602083101515613ba75780518252602082019150602081019050602083039250613b82565b6001836020036101000a03801982511681845116808217855250505050505090500191505060405180910390207dffffffffffffffffffffffffffffffffffffffffffffffffffffffffffff19169250838060010194505060009150600160140360ff1690505b6000600182011115613c91576002600182601460ff1603030260100a8382601481101515613c3857fe5b1a7f0100000000000000000000000000000000000000000000000000000000000000027f010000000000000000000000000000000000000000000000000000000000000090040282019150808060019003915050613c0e565b8194505050505090565b6000808284019050838110151515613caf57fe5b8091505092915050565b60008083600a600082815260200190815260200160002060009054906101000a900473ffffffffffffffffffffffffffffffffffffffff1673ffffffffffffffffffffffffffffffffffffffff163373ffffffffffffffffffffffffffffffffffffffff16141515613d93576040517f08c379a000000000000000000000000000000000000000000000000000000000815260040180806020018281038252601b8152602001807f4f6e6c7920746865206f776e65722063616e20646f20746869732e000000000081525060200191505060405180910390fd5b600985815481101515613da257fe5b90600052602060002090600602016002015492506064600a8402811515613dc557fe5b0483019150818411151515613dd957600080fd5b83600986815481101515613de957fe5b9060005260206000209060060201600201819055505050505050565b6000813b9050919050565b6000613e1a613e21565b9050919050565b600080613e41731d3b2638a7cc9f2cb3d298a3da7a90b67e5506ed613e05565b1115613ee357731d3b2638a7cc9f2cb3d298a3da7a90b67e5506ed600c60006101000a81548173ffffffffffffffffffffffffffffffffffffffff021916908373ffffffffffffffffffffffffffffffffffffffff160217905550613eda6040805190810160405280600b81526020017f6574685f6d61696e6e65740000000000000000000000000000000000000000008152506142b7565b600190506142b4565b6000613f0273c03a2615d5efaf5f49f60b7bb6583eaec212fdf1613e05565b1115613fa45773c03a2615d5efaf5f49f60b7bb6583eaec212fdf1600c60006101000a81548173ffffffffffffffffffffffffffffffffffffffff021916908373ffffffffffffffffffffffffffffffffffffffff160217905550613f9b6040805190810160405280600c81526020017f6574685f726f707374656e3300000000000000000000000000000000000000008152506142b7565b600190506142b4565b6000613fc373b7a07bcf2ba2f2703b24c0691b5278999c59ac7e613e05565b11156140655773b7a07bcf2ba2f2703b24c0691b5278999c59ac7e600c60006101000a81548173ffffffffffffffffffffffffffffffffffffffff021916908373ffffffffffffffffffffffffffffffffffffffff16021790555061405c6040805190810160405280600981526020017f6574685f6b6f76616e00000000000000000000000000000000000000000000008152506142b7565b600190506142b4565b600061408473146500cfd35b22e4a392fe0adc06de1a1368ed48613e05565b11156141265773146500cfd35b22e4a392fe0adc06de1a1368ed48600c60006101000a81548173ffffffffffffffffffffffffffffffffffffffff021916908373ffffffffffffffffffffffffffffffffffffffff16021790555061411d6040805190810160405280600b81526020017f6574685f72696e6b6562790000000000000000000000000000000000000000008152506142b7565b600190506142b4565b6000614145736f485c8bf6fc43ea212e93bbf8ce046c7f1cb475613e05565b11156141a957736f485c8bf6fc43ea212e93bbf8ce046c7f1cb475600c60006101000a81548173ffffffffffffffffffffffffffffffffffffffff021916908373ffffffffffffffffffffffffffffffffffffffff160217905550600190506142b4565b60006141c87320e12a1f859b3feae5fb2a0a32c18f5a65555bbf613e05565b111561422c577320e12a1f859b3feae5fb2a0a32c18f5a65555bbf600c60006101000a81548173ffffffffffffffffffffffffffffffffffffffff021916908373ffffffffffffffffffffffffffffffffffffffff160217905550600190506142b4565b600061424b7351efaf4c8b3c9afbd5ab9f4bbc82784ab6ef8faa613e05565b11156142af577351efaf4c8b3c9afbd5ab9f4bbc82784ab6ef8faa600c60006101000a81548173ffffffffffffffffffffffffffffffffffffffff021916908373ffffffffffffffffffffffffffffffffffffffff160217905550600190506142b4565b600090505b90565b80600e90805190602001906142cd929190614351565b5050565b828054600181600116156101000203166002900490600052602060002090601f016020900481019282601f1061431257803560ff1916838001178555614340565b82800160010185558215614340579182015b8281111561433f578235825591602001919060010190614324565b5b50905061434d9190614499565b5090565b828054600181600116156101000203166002900490600052602060002090601f016020900481019282601f1061439257805160ff19168380011785556143c0565b828001600101855582156143c0579182015b828111156143bf5782518255916020019190600101906143a4565b5b5090506143cd9190614499565b5090565b50805460018160011615610100020316600290046000825580601f106143f75750614416565b601f0160209004906000526020600020908101906144159190614499565b5b50565b828054600181600116156101000203166002900490600052602060002090601f016020900481019282601f1061445a57805160ff1916838001178555614488565b82800160010185558215614488579182015b8281111561448757825182559160200191906001019061446c565b5b5090506144959190614499565b5090565b6144bb91905b808211156144b757600081600090555060010161449f565b5090565b905600a165627a7a72305820539f4a9e250199d35b8df59cb3f022fd577ed541ec1c39bc51fc6454739b7c160029",
  "source": "pragma solidity ^0.4.24;\r\nimport \"./Event.sol\";\r\nimport \"./Ticket.sol\";\r\nimport \"./PriceOracle.sol\";\r\n\r\ncontract BuyTicket is Event, Ticket, PriceOracle{\r\n    event NoTickets (string noTickets);\r\n\r\n    constructor() payable public{\r\n        /* _buyTicket(0, 2555653192735794000);*/\r\n    }\r\n\r\n    function buyTicket(uint _eventId, uint moneyToTransfer) external payable {\r\n        require(accountType() == 1);// only user can do this\r\n        require(eventArray[_eventId].ticketsToSale > 0); // tickets are available\r\n        require(msg.value == moneyToTransfer); // correct sum of eth sent\r\n        eventArray[_eventId].owner.transfer(msg.value);\r\n        eventArray[_eventId].ticketsToSale --;\r\n        createTicket(eventArray[_eventId].price, _eventId );\r\n    }\r\n\r\n    function buyTicketForResale(uint _ticketId, uint moneyToTransfer) external payable {\r\n        require(accountType() == 1); // only user can do this\r\n        require(ticketsArray[_ticketId].owner != msg.sender); // can't buy your own tickets\r\n        require(ticketsArray[_ticketId].forSale == true); // ticket must be on the 2nd market\r\n        require(msg.value == moneyToTransfer);// correct sum of eth sent\r\n        eventArray[ticketsArray[_ticketId].eventId].owner.transfer(uint256(5 * msg.value) / 100); // 5% of the price paid goes back to the initial owner\r\n        ticketsArray[_ticketId].owner.transfer(msg.value);\r\n        ticketsArray[_ticketId].owner = msg.sender;\r\n        ticketsArray[_ticketId].forSale = false;\r\n        ticketsArray[_ticketId].price = moneyToTransfer;\r\n        ticketsArray[_ticketId].hash = generateUniqueId();\r\n    }\r\n\r\n}",
  "sourcePath": "C:\\Users\\petri\\Desktop\\CryptoTickets\\contracts\\BuyTicket.sol",
  "compiler": {
    "name": "solc",
    "version": "0.4.24+commit.e67f0147.Emscripten.clang"
  },
  "schemaVersion": "2.0.1",
  "updatedAt": "2019-05-02T09:46:32.729Z"
}