{
  "contractName": "Event",
  "abi": [
    {
      "constant": false,
      "inputs": [
        {
          "name": "_accountType",
          "type": "uint8"
        },
        {
          "name": "_username",
          "type": "string"
        },
        {
          "name": "_email",
          "type": "bytes32"
        }
      ],
      "name": "registerNewUser",
      "outputs": [],
      "payable": false,
      "stateMutability": "nonpayable",
      "type": "function"
    },
    {
      "constant": true,
      "inputs": [
        {
          "name": "",
          "type": "uint256"
        }
      ],
      "name": "eventToOwner",
      "outputs": [
        {
          "name": "",
          "type": "address"
        }
      ],
      "payable": false,
      "stateMutability": "view",
      "type": "function"
    },
    {
      "constant": true,
      "inputs": [],
      "name": "getUsername",
      "outputs": [
        {
          "name": "",
          "type": "string"
        }
      ],
      "payable": false,
      "stateMutability": "view",
      "type": "function"
    },
    {
      "constant": true,
      "inputs": [],
      "name": "hasAccount",
      "outputs": [
        {
          "name": "",
          "type": "bool"
        }
      ],
      "payable": false,
      "stateMutability": "view",
      "type": "function"
    },
    {
      "constant": true,
      "inputs": [],
      "name": "accountType",
      "outputs": [
        {
          "name": "",
          "type": "uint256"
        }
      ],
      "payable": false,
      "stateMutability": "view",
      "type": "function"
    },
    {
      "constant": false,
      "inputs": [
        {
          "name": "_badUser",
          "type": "address"
        }
      ],
      "name": "removeUser",
      "outputs": [
        {
          "name": "success",
          "type": "bool"
        }
      ],
      "payable": false,
      "stateMutability": "nonpayable",
      "type": "function"
    },
    {
      "constant": true,
      "inputs": [
        {
          "name": "",
          "type": "address"
        }
      ],
      "name": "eventOwnerCount",
      "outputs": [
        {
          "name": "",
          "type": "uint256"
        }
      ],
      "payable": false,
      "stateMutability": "view",
      "type": "function"
    },
    {
      "constant": true,
      "inputs": [
        {
          "name": "",
          "type": "address"
        }
      ],
      "name": "users",
      "outputs": [
        {
          "name": "owner",
          "type": "address"
        },
        {
          "name": "accountType",
          "type": "uint8"
        },
        {
          "name": "username",
          "type": "string"
        },
        {
          "name": "email",
          "type": "bytes32"
        }
      ],
      "payable": false,
      "stateMutability": "view",
      "type": "function"
    },
    {
      "constant": true,
      "inputs": [
        {
          "name": "",
          "type": "uint256"
        }
      ],
      "name": "eventArray",
      "outputs": [
        {
          "name": "owner",
          "type": "address"
        },
        {
          "name": "title",
          "type": "bytes32"
        },
        {
          "name": "description",
          "type": "string"
        },
        {
          "name": "picture",
          "type": "string"
        },
        {
          "name": "ticketsToSale",
          "type": "uint32"
        },
        {
          "name": "price",
          "type": "uint32"
        },
        {
          "name": "allowResale",
          "type": "bool"
        },
        {
          "name": "id",
          "type": "uint256"
        }
      ],
      "payable": false,
      "stateMutability": "view",
      "type": "function"
    },
    {
      "anonymous": false,
      "inputs": [
        {
          "indexed": false,
          "name": "eventId",
          "type": "uint256"
        },
        {
          "indexed": false,
          "name": "_account",
          "type": "address"
        },
        {
          "indexed": false,
          "name": "_title",
          "type": "bytes32"
        },
        {
          "indexed": false,
          "name": "_details",
          "type": "string"
        },
        {
          "indexed": false,
          "name": "_picture",
          "type": "string"
        },
        {
          "indexed": false,
          "name": "_ticketToSale",
          "type": "uint32"
        },
        {
          "indexed": false,
          "name": "_price",
          "type": "uint32"
        }
      ],
      "name": "NewEvent",
      "type": "event"
    },
    {
      "constant": false,
      "inputs": [
        {
          "name": "_title",
          "type": "bytes32"
        },
        {
          "name": "_details",
          "type": "string"
        },
        {
          "name": "_picture",
          "type": "string"
        },
        {
          "name": "_ticketsToSale",
          "type": "uint32"
        },
        {
          "name": "_price",
          "type": "uint32"
        },
        {
          "name": "_allowResale",
          "type": "bool"
        }
      ],
      "name": "createEvent",
      "outputs": [],
      "payable": false,
      "stateMutability": "nonpayable",
      "type": "function"
    },
    {
      "constant": true,
      "inputs": [],
      "name": "getEventArraySize",
      "outputs": [
        {
          "name": "",
          "type": "uint256"
        }
      ],
      "payable": false,
      "stateMutability": "view",
      "type": "function"
    },
    {
      "constant": false,
      "inputs": [
        {
          "name": "_id",
          "type": "uint256"
        },
        {
          "name": "_title",
          "type": "bytes32"
        }
      ],
      "name": "modifyEventTitle",
      "outputs": [],
      "payable": false,
      "stateMutability": "nonpayable",
      "type": "function"
    },
    {
      "constant": false,
      "inputs": [
        {
          "name": "_id",
          "type": "uint256"
        },
        {
          "name": "_description",
          "type": "string"
        }
      ],
      "name": "modifyEventDescription",
      "outputs": [],
      "payable": false,
      "stateMutability": "nonpayable",
      "type": "function"
    },
    {
      "constant": false,
      "inputs": [
        {
          "name": "_id",
          "type": "uint256"
        },
        {
          "name": "_picture",
          "type": "string"
        }
      ],
      "name": "modifyEventPicture",
      "outputs": [],
      "payable": false,
      "stateMutability": "nonpayable",
      "type": "function"
    },
    {
      "constant": false,
      "inputs": [
        {
          "name": "_id",
          "type": "uint256"
        },
        {
          "name": "_ticketsToSale",
          "type": "uint32"
        }
      ],
      "name": "modifyEventNoTickets",
      "outputs": [],
      "payable": false,
      "stateMutability": "nonpayable",
      "type": "function"
    },
    {
      "constant": false,
      "inputs": [
        {
          "name": "_id",
          "type": "uint256"
        },
        {
          "name": "_price",
          "type": "uint32"
        }
      ],
      "name": "modifyEventPrice",
      "outputs": [],
      "payable": false,
      "stateMutability": "nonpayable",
      "type": "function"
    }
  ],
  "bytecode": "0x6080604052600060045533600160006101000a81548173ffffffffffffffffffffffffffffffffffffffff021916908373ffffffffffffffffffffffffffffffffffffffff160217905550611c69806100596000396000f3006080604052600436106100e6576000357c0100000000000000000000000000000000000000000000000000000000900463ffffffff168063061887bf146100eb5780632a9585e1146101415780632d1410b71461017e5780632f6fe8e0146101bb5780633ff9622214610200578063681f3e6d1461026d5780638f76a380146102fd57806395eec3c91461032c5780639857518814610357578063a463650d146103b2578063a7ebe3bb146103ed578063a87430ba14610444578063b056ad461461054f578063b9c7a3b4146105dc578063bd4e64a014610768578063e96f54d314610793575b600080fd5b3480156100f757600080fd5b5061013f600480360381019080803560ff16906020019092919080359060200190820180359060200191909192939192939080356000191690602001909291905050506107d8565b005b34801561014d57600080fd5b5061017c60048036038101908080359060200190929190803563ffffffff169060200190929190505050610ae7565b005b34801561018a57600080fd5b506101b960048036038101908080359060200190929190803563ffffffff169060200190929190505050610c02565b005b3480156101c757600080fd5b506101fe60048036038101908080359060200190929190803590602001908201803590602001919091929391929390505050610d1d565b005b34801561020c57600080fd5b5061022b60048036038101908080359060200190929190505050610e2a565b604051808273ffffffffffffffffffffffffffffffffffffffff1673ffffffffffffffffffffffffffffffffffffffff16815260200191505060405180910390f35b34801561027957600080fd5b50610282610e5d565b6040518080602001828103825283818151815260200191508051906020019080838360005b838110156102c25780820151818401526020810190506102a7565b50505050905090810190601f1680156102ef5780820380516001836020036101000a031916815260200191505b509250505060405180910390f35b34801561030957600080fd5b50610312610fdb565b604051808215151515815260200191505060405180910390f35b34801561033857600080fd5b50610341610ffe565b6040518082815260200191505060405180910390f35b34801561036357600080fd5b50610398600480360381019080803573ffffffffffffffffffffffffffffffffffffffff169060200190929190505050611058565b604051808215151515815260200191505060405180910390f35b3480156103be57600080fd5b506103eb600480360381019080803590602001909291908035600019169060200190929190505050611154565b005b3480156103f957600080fd5b5061042e600480360381019080803573ffffffffffffffffffffffffffffffffffffffff169060200190929190505050611259565b6040518082815260200191505060405180910390f35b34801561045057600080fd5b50610485600480360381019080803573ffffffffffffffffffffffffffffffffffffffff169060200190929190505050611271565b604051808573ffffffffffffffffffffffffffffffffffffffff1673ffffffffffffffffffffffffffffffffffffffff1681526020018460ff1660ff168152602001806020018360001916600019168152602001828103825284818151815260200191508051906020019080838360005b838110156105115780820151818401526020810190506104f6565b50505050905090810190601f16801561053e5780820380516001836020036101000a031916815260200191505b509550505050505060405180910390f35b34801561055b57600080fd5b506105da6004803603810190808035600019169060200190929190803590602001908201803590602001919091929391929390803590602001908201803590602001919091929391929390803563ffffffff169060200190929190803563ffffffff169060200190929190803515159060200190929190505050611366565b005b3480156105e857600080fd5b50610607600480360381019080803590602001909291905050506117c4565b604051808973ffffffffffffffffffffffffffffffffffffffff1673ffffffffffffffffffffffffffffffffffffffff168152602001886000191660001916815260200180602001806020018763ffffffff1663ffffffff1681526020018663ffffffff1663ffffffff16815260200185151515158152602001848152602001838103835289818151815260200191508051906020019080838360005b838110156106bf5780820151818401526020810190506106a4565b50505050905090810190601f1680156106ec5780820380516001836020036101000a031916815260200191505b50838103825288818151815260200191508051906020019080838360005b8381101561072557808201518184015260208101905061070a565b50505050905090810190601f1680156107525780820380516001836020036101000a031916815260200191505b509a505050505050505050505060405180910390f35b34801561077457600080fd5b5061077d611998565b6040518082815260200191505060405180910390f35b34801561079f57600080fd5b506107d6600480360381019080803590602001909291908035906020019082018035906020019190919293919293905050506119a5565b005b3373ffffffffffffffffffffffffffffffffffffffff16600260003373ffffffffffffffffffffffffffffffffffffffff1673ffffffffffffffffffffffffffffffffffffffff16815260200190815260200160002060000160009054906101000a900473ffffffffffffffffffffffffffffffffffffffff1673ffffffffffffffffffffffffffffffffffffffff161415151561087557600080fd5b6000600260003373ffffffffffffffffffffffffffffffffffffffff1673ffffffffffffffffffffffffffffffffffffffff1681526020019081526020016000206001018054600181600116156101000203166002900490501480156108df575060008383905014155b15610ae157600015156003848460405180838380828437820191505092505050908152602001604051809103902060009054906101000a900460ff16151514151561092957600080fd5b33600260003373ffffffffffffffffffffffffffffffffffffffff1673ffffffffffffffffffffffffffffffffffffffff16815260200190815260200160002060000160006101000a81548173ffffffffffffffffffffffffffffffffffffffff021916908373ffffffffffffffffffffffffffffffffffffffff16021790555083600260003373ffffffffffffffffffffffffffffffffffffffff1673ffffffffffffffffffffffffffffffffffffffff16815260200190815260200160002060000160146101000a81548160ff021916908360ff1602179055508282600260003373ffffffffffffffffffffffffffffffffffffffff1673ffffffffffffffffffffffffffffffffffffffff1681526020019081526020016000206001019190610a56929190611ad0565b5080600260003373ffffffffffffffffffffffffffffffffffffffff1673ffffffffffffffffffffffffffffffffffffffff168152602001908152602001600020600201816000191690555060016003848460405180838380828437820191505092505050908152602001604051809103902060006101000a81548160ff0219169083151502179055505b50505050565b816006600082815260200190815260200160002060009054906101000a900473ffffffffffffffffffffffffffffffffffffffff1673ffffffffffffffffffffffffffffffffffffffff163373ffffffffffffffffffffffffffffffffffffffff16141515610bbe576040517f08c379a000000000000000000000000000000000000000000000000000000000815260040180806020018281038252601b8152602001807f4f6e6c7920746865206f776e65722063616e20646f20746869732e000000000081525060200191505060405180910390fd5b81600584815481101515610bce57fe5b906000526020600020906006020160040160006101000a81548163ffffffff021916908363ffffffff160217905550505050565b816006600082815260200190815260200160002060009054906101000a900473ffffffffffffffffffffffffffffffffffffffff1673ffffffffffffffffffffffffffffffffffffffff163373ffffffffffffffffffffffffffffffffffffffff16141515610cd9576040517f08c379a000000000000000000000000000000000000000000000000000000000815260040180806020018281038252601b8152602001807f4f6e6c7920746865206f776e65722063616e20646f20746869732e000000000081525060200191505060405180910390fd5b81600584815481101515610ce957fe5b906000526020600020906006020160040160046101000a81548163ffffffff021916908363ffffffff160217905550505050565b826006600082815260200190815260200160002060009054906101000a900473ffffffffffffffffffffffffffffffffffffffff1673ffffffffffffffffffffffffffffffffffffffff163373ffffffffffffffffffffffffffffffffffffffff16141515610df4576040517f08c379a000000000000000000000000000000000000000000000000000000000815260040180806020018281038252601b8152602001807f4f6e6c7920746865206f776e65722063616e20646f20746869732e000000000081525060200191505060405180910390fd5b8282600586815481101515610e0557fe5b90600052602060002090600602016003019190610e23929190611ad0565b5050505050565b60066020528060005260406000206000915054906101000a900473ffffffffffffffffffffffffffffffffffffffff1681565b60603373ffffffffffffffffffffffffffffffffffffffff16600260003373ffffffffffffffffffffffffffffffffffffffff1673ffffffffffffffffffffffffffffffffffffffff16815260200190815260200160002060000160009054906101000a900473ffffffffffffffffffffffffffffffffffffffff1673ffffffffffffffffffffffffffffffffffffffff16141515610efb57600080fd5b600260003373ffffffffffffffffffffffffffffffffffffffff1673ffffffffffffffffffffffffffffffffffffffff1681526020019081526020016000206001018054600181600116156101000203166002900480601f016020809104026020016040519081016040528092919081815260200182805460018160011615610100020316600290048015610fd15780601f10610fa657610100808354040283529160200191610fd1565b820191906000526020600020905b815481529060010190602001808311610fb457829003601f168201915b5050505050905090565b600080600190506000610fec610ffe565b1415610ff757600090505b8091505090565b6000600260003373ffffffffffffffffffffffffffffffffffffffff1673ffffffffffffffffffffffffffffffffffffffff16815260200190815260200160002060000160149054906101000a900460ff1660ff16905090565b6000600160009054906101000a900473ffffffffffffffffffffffffffffffffffffffff1673ffffffffffffffffffffffffffffffffffffffff163373ffffffffffffffffffffffffffffffffffffffff161415156110b657600080fd5b600260008373ffffffffffffffffffffffffffffffffffffffff1673ffffffffffffffffffffffffffffffffffffffff168152602001908152602001600020600080820160006101000a81549073ffffffffffffffffffffffffffffffffffffffff02191690556000820160146101000a81549060ff02191690556001820160006111419190611b50565b6002820160009055505060019050919050565b816006600082815260200190815260200160002060009054906101000a900473ffffffffffffffffffffffffffffffffffffffff1673ffffffffffffffffffffffffffffffffffffffff163373ffffffffffffffffffffffffffffffffffffffff1614151561122b576040517f08c379a000000000000000000000000000000000000000000000000000000000815260040180806020018281038252601b8152602001807f4f6e6c7920746865206f776e65722063616e20646f20746869732e000000000081525060200191505060405180910390fd5b8160058481548110151561123b57fe5b90600052602060002090600602016001018160001916905550505050565b60076020528060005260406000206000915090505481565b60026020528060005260406000206000915090508060000160009054906101000a900473ffffffffffffffffffffffffffffffffffffffff16908060000160149054906101000a900460ff1690806001018054600181600116156101000203166002900480601f0160208091040260200160405190810160405280929190818152602001828054600181600116156101000203166002900480156113565780601f1061132b57610100808354040283529160200191611356565b820191906000526020600020905b81548152906001019060200180831161133957829003601f168201915b5050505050908060020154905084565b600060028060003373ffffffffffffffffffffffffffffffffffffffff1673ffffffffffffffffffffffffffffffffffffffff16815260200190815260200160002060000160149054906101000a900460ff1660ff161415156113c857600080fd5b60016005610100604051908101604052803373ffffffffffffffffffffffffffffffffffffffff1681526020018c6000191681526020018b8b8080601f016020809104026020016040519081016040528093929190818152602001838380828437820191505050505050815260200189898080601f01602080910402602001604051908101604052809392919081815260200183838082843782019150505050505081526020018763ffffffff1681526020018663ffffffff16815260200185151581526020016004548152509080600181540180825580915050906001820390600052602060002090600602016000909192909190915060008201518160000160006101000a81548173ffffffffffffffffffffffffffffffffffffffff021916908373ffffffffffffffffffffffffffffffffffffffff160217905550602082015181600101906000191690556040820151816002019080519060200190611533929190611b98565b506060820151816003019080519060200190611550929190611b98565b5060808201518160040160006101000a81548163ffffffff021916908363ffffffff16021790555060a08201518160040160046101000a81548163ffffffff021916908363ffffffff16021790555060c08201518160040160086101000a81548160ff02191690831515021790555060e082015181600501555050039050336006600083815260200190815260200160002060006101000a81548173ffffffffffffffffffffffffffffffffffffffff021916908373ffffffffffffffffffffffffffffffffffffffff1602179055506116366001600454611ab290919063ffffffff16565b60048190555061168f6001600760003373ffffffffffffffffffffffffffffffffffffffff1673ffffffffffffffffffffffffffffffffffffffff16815260200190815260200160002054611ab290919063ffffffff16565b600760003373ffffffffffffffffffffffffffffffffffffffff1673ffffffffffffffffffffffffffffffffffffffff168152602001908152602001600020819055507fbdcfb372a04d92208c9311496eadb40d741bb0c3641cbd80e3a6f7f312155b6f81338b8b8b8b8b8b8b604051808a81526020018973ffffffffffffffffffffffffffffffffffffffff1673ffffffffffffffffffffffffffffffffffffffff168152602001886000191660001916815260200180602001806020018563ffffffff1663ffffffff1681526020018463ffffffff1663ffffffff16815260200183810383528989828181526020019250808284378201915050838103825287878281815260200192508082843782019150509b50505050505050505050505060405180910390a1505050505050505050565b6005818154811015156117d357fe5b90600052602060002090600602016000915090508060000160009054906101000a900473ffffffffffffffffffffffffffffffffffffffff1690806001015490806002018054600181600116156101000203166002900480601f0160208091040260200160405190810160405280929190818152602001828054600181600116156101000203166002900480156118ab5780601f10611880576101008083540402835291602001916118ab565b820191906000526020600020905b81548152906001019060200180831161188e57829003601f168201915b505050505090806003018054600181600116156101000203166002900480601f0160208091040260200160405190810160405280929190818152602001828054600181600116156101000203166002900480156119495780601f1061191e57610100808354040283529160200191611949565b820191906000526020600020905b81548152906001019060200180831161192c57829003601f168201915b5050505050908060040160009054906101000a900463ffffffff16908060040160049054906101000a900463ffffffff16908060040160089054906101000a900460ff16908060050154905088565b6000600580549050905090565b826006600082815260200190815260200160002060009054906101000a900473ffffffffffffffffffffffffffffffffffffffff1673ffffffffffffffffffffffffffffffffffffffff163373ffffffffffffffffffffffffffffffffffffffff16141515611a7c576040517f08c379a000000000000000000000000000000000000000000000000000000000815260040180806020018281038252601b8152602001807f4f6e6c7920746865206f776e65722063616e20646f20746869732e000000000081525060200191505060405180910390fd5b8282600586815481101515611a8d57fe5b90600052602060002090600602016002019190611aab929190611ad0565b5050505050565b6000808284019050838110151515611ac657fe5b8091505092915050565b828054600181600116156101000203166002900490600052602060002090601f016020900481019282601f10611b1157803560ff1916838001178555611b3f565b82800160010185558215611b3f579182015b82811115611b3e578235825591602001919060010190611b23565b5b509050611b4c9190611c18565b5090565b50805460018160011615610100020316600290046000825580601f10611b765750611b95565b601f016020900490600052602060002090810190611b949190611c18565b5b50565b828054600181600116156101000203166002900490600052602060002090601f016020900481019282601f10611bd957805160ff1916838001178555611c07565b82800160010185558215611c07579182015b82811115611c06578251825591602001919060010190611beb565b5b509050611c149190611c18565b5090565b611c3a91905b80821115611c36576000816000905550600101611c1e565b5090565b905600a165627a7a72305820e4077667d4c101f9711624035ea51d90cbab9c7c49daf20cddd503a56fd6e9d70029",
  "source": "pragma solidity ^0.4.24;\r\nimport \"./UserType.sol\";\r\nimport \"./safemath.sol\";\r\n\r\ncontract Event is UserType {\r\n    uint eventUniqueId = 0; // id for each event\r\n    using SafeMath for uint256;\r\n\r\n    event NewEvent(uint eventId, address _account, bytes32 _title, string _details, string _picture, uint32 _ticketToSale, uint32 _price);\r\n\r\n    // Model an Event\r\n    struct EventDetails{\r\n        address owner;\r\n        bytes32 title;\r\n        string description;\r\n        string picture;\r\n        uint32 ticketsToSale;\r\n        uint32 price;\r\n        bool allowResale;\r\n        uint id; // eventUniqueId\r\n    }\r\n    // Store events\r\n    EventDetails[] public eventArray; //\r\n\r\n    mapping (uint => address) public eventToOwner;// Keeps track of the address that owns an event\r\n    mapping (address => uint) public eventOwnerCount; //Keeps track of how many events a manager has\r\n\r\n    function createEvent( bytes32 _title, string _details, string _picture, uint32 _ticketsToSale, uint32 _price, bool _allowResale) external{\r\n        require(users[msg.sender].accountType == 2); // only event managers can create events\r\n        uint id = eventArray.push(EventDetails(msg.sender, _title, _details, _picture, _ticketsToSale, _price, _allowResale, eventUniqueId)) - 1;\r\n        eventToOwner[id] = msg.sender;\r\n        eventUniqueId = eventUniqueId.add(1);\r\n        eventOwnerCount[msg.sender] = eventOwnerCount[msg.sender].add(1);\r\n        emit NewEvent(id, msg.sender, _title, _details, _picture, _ticketsToSale, _price);\r\n    }\r\n    function getEventArraySize() external view returns (uint){\r\n        return eventArray.length;\r\n    }\r\n\r\n    modifier onlyEventOwner(uint _id) {\r\n        require(msg.sender == eventToOwner[_id], \"Only the owner can do this.\");\r\n        _;\r\n    }\r\n    // could make to return boolean ?\r\n    function modifyEventTitle(uint _id, bytes32 _title) external onlyEventOwner(_id){\r\n        eventArray[_id].title = _title;\r\n    }\r\n    function modifyEventDescription(uint _id, string _description) external onlyEventOwner(_id){\r\n        eventArray[_id].description = _description;\r\n    }\r\n    function modifyEventPicture(uint _id, string _picture) external onlyEventOwner(_id){\r\n        eventArray[_id].picture = _picture;\r\n    }\r\n    function modifyEventNoTickets(uint _id, uint32 _ticketsToSale) external onlyEventOwner(_id){\r\n        eventArray[_id].ticketsToSale = _ticketsToSale;\r\n    }\r\n    function modifyEventPrice(uint _id, uint32 _price) external onlyEventOwner(_id){\r\n        eventArray[_id].price = _price;\r\n    }\r\n\r\n    // return array of indexes of owner's events\r\n/*    function getEventsByOwner(address _owner) external view returns(uint[]) {\r\n        uint[] memory result = new uint[](eventOwnerCount[_owner]);\r\n        uint counter = 0;\r\n        for (uint i = 0; i < eventArray.length; i++) {\r\n            if (eventToOwner[i] == _owner) {   // BUG\r\n                result[counter] = i;\r\n                counter++;\r\n            }\r\n        }\r\n        return result;\r\n    }*/\r\n}\r\n",
  "sourcePath": "C:\\Users\\petri\\Desktop\\CryptoTickets\\contracts\\Event.sol",
  "compiler": {
    "name": "solc",
    "version": "0.4.24+commit.e67f0147.Emscripten.clang"
  },
  "schemaVersion": "2.0.1",
  "updatedAt": "2019-05-02T09:46:29.512Z"
}