{
  "contractName": "Infura",
  "abi": [
    {
      "constant": false,
      "inputs": [
        {
          "name": "_title",
          "type": "string"
        },
        {
          "name": "_details",
          "type": "string"
        },
        {
          "name": "_picture",
          "type": "string"
        },
        {
          "name": "_ticketsToSale",
          "type": "uint256"
        },
        {
          "name": "_price",
          "type": "uint256"
        }
      ],
      "name": "_createEvent",
      "outputs": [],
      "payable": false,
      "stateMutability": "nonpayable",
      "type": "function"
    },
    {
      "constant": true,
      "inputs": [
        {
          "name": "",
          "type": "uint256"
        }
      ],
      "name": "eventToOwner",
      "outputs": [
        {
          "name": "",
          "type": "address"
        }
      ],
      "payable": false,
      "stateMutability": "view",
      "type": "function"
    },
    {
      "constant": true,
      "inputs": [
        {
          "name": "",
          "type": "address"
        }
      ],
      "name": "countEventsByOwner",
      "outputs": [
        {
          "name": "",
          "type": "uint256"
        }
      ],
      "payable": false,
      "stateMutability": "view",
      "type": "function"
    },
    {
      "constant": true,
      "inputs": [],
      "name": "getEventListSize",
      "outputs": [
        {
          "name": "",
          "type": "uint256"
        }
      ],
      "payable": false,
      "stateMutability": "view",
      "type": "function"
    },
    {
      "constant": true,
      "inputs": [
        {
          "name": "",
          "type": "uint256"
        }
      ],
      "name": "eventArray",
      "outputs": [
        {
          "name": "owner",
          "type": "address"
        },
        {
          "name": "title",
          "type": "string"
        },
        {
          "name": "description",
          "type": "string"
        },
        {
          "name": "picture",
          "type": "string"
        },
        {
          "name": "ticketsToSale",
          "type": "uint256"
        },
        {
          "name": "price",
          "type": "uint256"
        },
        {
          "name": "id",
          "type": "uint256"
        }
      ],
      "payable": false,
      "stateMutability": "view",
      "type": "function"
    },
    {
      "anonymous": false,
      "inputs": [
        {
          "indexed": false,
          "name": "eventId",
          "type": "uint256"
        },
        {
          "indexed": false,
          "name": "_account",
          "type": "address"
        },
        {
          "indexed": false,
          "name": "_title",
          "type": "string"
        },
        {
          "indexed": false,
          "name": "_details",
          "type": "string"
        },
        {
          "indexed": false,
          "name": "_picture",
          "type": "string"
        },
        {
          "indexed": false,
          "name": "_ticketToSale",
          "type": "uint256"
        },
        {
          "indexed": false,
          "name": "_price",
          "type": "uint256"
        }
      ],
      "name": "NewEvent",
      "type": "event"
    },
    {
      "constant": false,
      "inputs": [
        {
          "name": "ipfsHash",
          "type": "string"
        }
      ],
      "name": "setHash",
      "outputs": [],
      "payable": false,
      "stateMutability": "nonpayable",
      "type": "function"
    },
    {
      "constant": true,
      "inputs": [
        {
          "name": "account",
          "type": "address"
        }
      ],
      "name": "getHash",
      "outputs": [
        {
          "name": "",
          "type": "string"
        },
        {
          "name": "",
          "type": "uint256"
        }
      ],
      "payable": false,
      "stateMutability": "view",
      "type": "function"
    }
  ],
  "bytecode": "0x608060405260008055620001646040805190810160405280600c81526020017f546f6d6f72726f776c616e640000000000000000000000000000000000000000815250606060405190810160405280603681526020017f546f6d6f72726f776c616e6420697320616e20656c656374726f6e696320646181526020017f6e6365206d7573696320666573746976616c202e2e200000000000000000000081525060a060405190810160405280606b81526020017f68747470733a2f2f7777772e746f6d6f72726f776c616e642e636f6d2f73726381526020017f2f46726f6e74656e642f5468656d65732f746f6d6f72726f776c616e642f436f81526020017f72652f4c61796f75742f696d616765732f6f70656e67726170682f746f6d6f7281526020017f726f776c616e642e6a7067000000000000000000000000000000000000000000815250620249f061015d6200020e640100000000026401000000009004565b620002086040805190810160405280600481526020017f54656458000000000000000000000000000000000000000000000000000000008152506040805190810160405280601f81526020017f496e20746865206d696e64206f6620612070726f6372617374696e61746f720081525060e06040519081016040528060a381526020016200156560a39139602260166200020e640100000000026401000000009004565b62000685565b600060018060e0604051908101604052803373ffffffffffffffffffffffffffffffffffffffff1681526020018981526020018881526020018781526020018681526020018581526020016000548152509080600181540180825580915050906001820390600052602060002090600702016000909192909190915060008201518160000160006101000a81548173ffffffffffffffffffffffffffffffffffffffff021916908373ffffffffffffffffffffffffffffffffffffffff1602179055506020820151816001019080519060200190620002ef929190620005d6565b5060408201518160020190805190602001906200030e929190620005d6565b5060608201518160030190805190602001906200032d929190620005d6565b506080820151816004015560a0820151816005015560c082015181600601555050039050336002600083815260200190815260200160002060006101000a81548173ffffffffffffffffffffffffffffffffffffffff021916908373ffffffffffffffffffffffffffffffffffffffff160217905550600360003373ffffffffffffffffffffffffffffffffffffffff1673ffffffffffffffffffffffffffffffffffffffff1681526020019081526020016000206000815480929190600101919050555060008081548092919060010191905055507f481e04a8bbe082f51b05cbee66e189f0f5d4c055e46872d1c76d16c782be362881338888888888604051808881526020018773ffffffffffffffffffffffffffffffffffffffff1673ffffffffffffffffffffffffffffffffffffffff168152602001806020018060200180602001868152602001858152602001848103845289818151815260200191508051906020019080838360005b83811015620004b95780820151818401526020810190506200049c565b50505050905090810190601f168015620004e75780820380516001836020036101000a031916815260200191505b50848103835288818151815260200191508051906020019080838360005b838110156200052257808201518184015260208101905062000505565b50505050905090810190601f168015620005505780820380516001836020036101000a031916815260200191505b50848103825287818151815260200191508051906020019080838360005b838110156200058b5780820151818401526020810190506200056e565b50505050905090810190601f168015620005b95780820380516001836020036101000a031916815260200191505b509a505050505050505050505060405180910390a1505050505050565b828054600181600116156101000203166002900490600052602060002090601f016020900481019282601f106200061957805160ff19168380011785556200064a565b828001600101855582156200064a579182015b82811115620006495782518255916020019190600101906200062c565b5b5090506200065991906200065d565b5090565b6200068291905b808211156200067e57600081600090555060010162000664565b5090565b90565b610ed080620006956000396000f300608060405260043610610083576000357c0100000000000000000000000000000000000000000000000000000000900463ffffffff168063010d2010146100885780631da0b8fc146101915780631ed83fd4146102545780633ff96222146102bd5780635197e70e1461032a5780635440d9b014610381578063b9c7a3b4146103ac575b600080fd5b34801561009457600080fd5b5061018f600480360381019080803590602001908201803590602001908080601f0160208091040260200160405190810160405280939291908181526020018383808284378201915050505050509192919290803590602001908201803590602001908080601f0160208091040260200160405190810160405280939291908181526020018383808284378201915050505050509192919290803590602001908201803590602001908080601f01602080910402602001604051908101604052809392919081815260200183838082843782019150505050505091929192908035906020019092919080359060200190929190505050610572565b005b34801561019d57600080fd5b506101d2600480360381019080803573ffffffffffffffffffffffffffffffffffffffff16906020019092919050505061092b565b6040518080602001838152602001828103825284818151815260200191508051906020019080838360005b838110156102185780820151818401526020810190506101fd565b50505050905090810190601f1680156102455780820380516001836020036101000a031916815260200191505b50935050505060405180910390f35b34801561026057600080fd5b506102bb600480360381019080803590602001908201803590602001908080601f0160208091040260200160405190810160405280939291908181526020018383808284378201915050505050509192919290505050610a53565b005b3480156102c957600080fd5b506102e860048036038101908080359060200190929190505050610aee565b604051808273ffffffffffffffffffffffffffffffffffffffff1673ffffffffffffffffffffffffffffffffffffffff16815260200191505060405180910390f35b34801561033657600080fd5b5061036b600480360381019080803573ffffffffffffffffffffffffffffffffffffffff169060200190929190505050610b21565b6040518082815260200191505060405180910390f35b34801561038d57600080fd5b50610396610b39565b6040518082815260200191505060405180910390f35b3480156103b857600080fd5b506103d760048036038101908080359060200190929190505050610b46565b604051808873ffffffffffffffffffffffffffffffffffffffff1673ffffffffffffffffffffffffffffffffffffffff16815260200180602001806020018060200187815260200186815260200185815260200184810384528a818151815260200191508051906020019080838360005b83811015610463578082015181840152602081019050610448565b50505050905090810190601f1680156104905780820380516001836020036101000a031916815260200191505b50848103835289818151815260200191508051906020019080838360005b838110156104c95780820151818401526020810190506104ae565b50505050905090810190601f1680156104f65780820380516001836020036101000a031916815260200191505b50848103825288818151815260200191508051906020019080838360005b8381101561052f578082015181840152602081019050610514565b50505050905090810190601f16801561055c5780820380516001836020036101000a031916815260200191505b509a505050505050505050505060405180910390f35b600060018060e0604051908101604052803373ffffffffffffffffffffffffffffffffffffffff1681526020018981526020018881526020018781526020018681526020018581526020016000548152509080600181540180825580915050906001820390600052602060002090600702016000909192909190915060008201518160000160006101000a81548173ffffffffffffffffffffffffffffffffffffffff021916908373ffffffffffffffffffffffffffffffffffffffff1602179055506020820151816001019080519060200190610651929190610d7f565b50604082015181600201908051906020019061066e929190610d7f565b50606082015181600301908051906020019061068b929190610d7f565b506080820151816004015560a0820151816005015560c082015181600601555050039050336002600083815260200190815260200160002060006101000a81548173ffffffffffffffffffffffffffffffffffffffff021916908373ffffffffffffffffffffffffffffffffffffffff160217905550600360003373ffffffffffffffffffffffffffffffffffffffff1673ffffffffffffffffffffffffffffffffffffffff1681526020019081526020016000206000815480929190600101919050555060008081548092919060010191905055507f481e04a8bbe082f51b05cbee66e189f0f5d4c055e46872d1c76d16c782be362881338888888888604051808881526020018773ffffffffffffffffffffffffffffffffffffffff1673ffffffffffffffffffffffffffffffffffffffff168152602001806020018060200180602001868152602001858152602001848103845289818151815260200191508051906020019080838360005b838110156108155780820151818401526020810190506107fa565b50505050905090810190601f1680156108425780820380516001836020036101000a031916815260200191505b50848103835288818151815260200191508051906020019080838360005b8381101561087b578082015181840152602081019050610860565b50505050905090810190601f1680156108a85780820380516001836020036101000a031916815260200191505b50848103825287818151815260200191508051906020019080838360005b838110156108e15780820151818401526020810190506108c6565b50505050905090810190601f16801561090e5780820380516001836020036101000a031916815260200191505b509a505050505050505050505060405180910390a1505050505050565b60606000600460008473ffffffffffffffffffffffffffffffffffffffff1673ffffffffffffffffffffffffffffffffffffffff168152602001908152602001600020600560008573ffffffffffffffffffffffffffffffffffffffff1673ffffffffffffffffffffffffffffffffffffffff16815260200190815260200160002054818054600181600116156101000203166002900480601f016020809104026020016040519081016040528092919081815260200182805460018160011615610100020316600290048015610a435780601f10610a1857610100808354040283529160200191610a43565b820191906000526020600020905b815481529060010190602001808311610a2657829003601f168201915b5050505050915091509150915091565b80600460003373ffffffffffffffffffffffffffffffffffffffff1673ffffffffffffffffffffffffffffffffffffffff1681526020019081526020016000209080519060200190610aa6929190610dff565b5042600560003373ffffffffffffffffffffffffffffffffffffffff1673ffffffffffffffffffffffffffffffffffffffff1681526020019081526020016000208190555050565b60026020528060005260406000206000915054906101000a900473ffffffffffffffffffffffffffffffffffffffff1681565b60036020528060005260406000206000915090505481565b6000600180549050905090565b600181815481101515610b5557fe5b90600052602060002090600702016000915090508060000160009054906101000a900473ffffffffffffffffffffffffffffffffffffffff1690806001018054600181600116156101000203166002900480601f016020809104026020016040519081016040528092919081815260200182805460018160011615610100020316600290048015610c275780601f10610bfc57610100808354040283529160200191610c27565b820191906000526020600020905b815481529060010190602001808311610c0a57829003601f168201915b505050505090806002018054600181600116156101000203166002900480601f016020809104026020016040519081016040528092919081815260200182805460018160011615610100020316600290048015610cc55780601f10610c9a57610100808354040283529160200191610cc5565b820191906000526020600020905b815481529060010190602001808311610ca857829003601f168201915b505050505090806003018054600181600116156101000203166002900480601f016020809104026020016040519081016040528092919081815260200182805460018160011615610100020316600290048015610d635780601f10610d3857610100808354040283529160200191610d63565b820191906000526020600020905b815481529060010190602001808311610d4657829003601f168201915b5050505050908060040154908060050154908060060154905087565b828054600181600116156101000203166002900490600052602060002090601f016020900481019282601f10610dc057805160ff1916838001178555610dee565b82800160010185558215610dee579182015b82811115610ded578251825591602001919060010190610dd2565b5b509050610dfb9190610e7f565b5090565b828054600181600116156101000203166002900490600052602060002090601f016020900481019282601f10610e4057805160ff1916838001178555610e6e565b82800160010185558215610e6e579182015b82811115610e6d578251825591602001919060010190610e52565b5b509050610e7b9190610e7f565b5090565b610ea191905b80821115610e9d576000816000905550600101610e85565b5090565b905600a165627a7a7230582031f594b1500bf47d81a0efea86f8b3dfbc49d0b12b0ba4e98732fd4058f3a275002968747470733a2f2f63646e2e766f782d63646e2e636f6d2f7468756d626f722f4c3957573153696c6842353768434635786231666e4170797459633d2f343378303a353736783335352f31323030783830302f66696c746572733a666f63616c28343378303a35373678333535292f63646e2e766f782d63646e2e636f6d2f6173736574732f323430373035372f544544785f6c6f676f2d363230783335352e706e67",
  "source": "pragma solidity ^0.4.2;\r\nimport \"./Event.sol\";\r\ncontract Infura is Event{\r\n    mapping (address => string) ipfsHashes;\r\n    mapping (address => uint) timestamp;\r\n\r\n    function setHash(string ipfsHash) public {\r\n        ipfsHashes[msg.sender] = ipfsHash;\r\n        timestamp[msg.sender] = now;\r\n    }\r\n\r\n    function getHash(address account) public view returns(string, uint) {\r\n        return (ipfsHashes[account], timestamp[account]);\r\n    }\r\n}",
  "sourcePath": "C:\\Users\\petri\\Desktop\\CryptoTickets\\contracts\\Infura.sol",
  "compiler": {
    "name": "solc",
    "version": "0.4.24+commit.e67f0147.Emscripten.clang"
  },
  "schemaVersion": "2.0.1",
  "updatedAt": "2019-02-08T00:58:31.510Z"
}