{
  "contractName": "PriceOracle",
  "abi": [
    {
      "constant": true,
      "inputs": [],
      "name": "ETHUSDSTRING",
      "outputs": [
        {
          "name": "",
          "type": "string"
        }
      ],
      "payable": false,
      "stateMutability": "view",
      "type": "function"
    },
    {
      "inputs": [],
      "payable": true,
      "stateMutability": "payable",
      "type": "constructor"
    },
    {
      "anonymous": false,
      "inputs": [
        {
          "indexed": false,
          "name": "price",
          "type": "string"
        }
      ],
      "name": "LogPriceUpdated",
      "type": "event"
    },
    {
      "anonymous": false,
      "inputs": [
        {
          "indexed": false,
          "name": "description",
          "type": "string"
        }
      ],
      "name": "LogNewOraclizeQuery",
      "type": "event"
    },
    {
      "anonymous": false,
      "inputs": [
        {
          "indexed": true,
          "name": "_owner",
          "type": "address"
        },
        {
          "indexed": true,
          "name": "_balance",
          "type": "uint256"
        }
      ],
      "name": "LogUpdate",
      "type": "event"
    },
    {
      "constant": false,
      "inputs": [
        {
          "name": "myid",
          "type": "bytes32"
        },
        {
          "name": "result",
          "type": "string"
        }
      ],
      "name": "__callback",
      "outputs": [],
      "payable": false,
      "stateMutability": "nonpayable",
      "type": "function"
    },
    {
      "constant": false,
      "inputs": [
        {
          "name": "myid",
          "type": "bytes32"
        },
        {
          "name": "result",
          "type": "string"
        },
        {
          "name": "proof",
          "type": "bytes"
        }
      ],
      "name": "__callback",
      "outputs": [],
      "payable": false,
      "stateMutability": "nonpayable",
      "type": "function"
    },
    {
      "constant": false,
      "inputs": [],
      "name": "getBalance",
      "outputs": [
        {
          "name": "_balance",
          "type": "uint256"
        }
      ],
      "payable": false,
      "stateMutability": "nonpayable",
      "type": "function"
    },
    {
      "constant": false,
      "inputs": [],
      "name": "updatePrice",
      "outputs": [],
      "payable": true,
      "stateMutability": "payable",
      "type": "function"
    }
  ],
  "bytecode": "0x608060405233600560006101000a81548173ffffffffffffffffffffffffffffffffffffffff021916908373ffffffffffffffffffffffffffffffffffffffff1602179055503073ffffffffffffffffffffffffffffffffffffffff1631600560009054906101000a900473ffffffffffffffffffffffffffffffffffffffff1673ffffffffffffffffffffffffffffffffffffffff167fd176e7c6abd789c341ab22cef27aa1fbc7461f5f9d6a6e55faa0b9df32a7051460405160405180910390a373e2b2c6e4e5e23b0132dc35ec7e3f763a7c2098fe6000806101000a81548173ffffffffffffffffffffffffffffffffffffffff021916908373ffffffffffffffffffffffffffffffffffffffff1602179055506118f2806101256000396000f30060806040526004361061006c576000357c0100000000000000000000000000000000000000000000000000000000900463ffffffff1680624934521461007157806312065fe01461010157806327dc297e1461012c57806338bbfa50146101a3578063673a7e2814610260575b600080fd5b34801561007d57600080fd5b5061008661026a565b6040518080602001828103825283818151815260200191508051906020019080838360005b838110156100c65780820151818401526020810190506100ab565b50505050905090810190601f1680156100f35780820380516001836020036101000a031916815260200191505b509250505060405180910390f35b34801561010d57600080fd5b50610116610308565b6040518082815260200191505060405180910390f35b34801561013857600080fd5b506101a16004803603810190808035600019169060200190929190803590602001908201803590602001908080601f0160208091040260200160405190810160405280939291908181526020018383808284378201915050505050509192919290505050610327565b005b3480156101af57600080fd5b5061025e6004803603810190808035600019169060200190929190803590602001908201803590602001908080601f0160208091040260200160405190810160405280939291908181526020018383808284378201915050505050509192919290803590602001908201803590602001908080601f016020809104026020016040519081016040528093929190818152602001838380828437820191505050505050919291929050505061041f565b005b610268610424565b005b60068054600181600116156101000203166002900480601f0160208091040260200160405190810160405280929190818152602001828054600181600116156101000203166002900480156103005780601f106102d557610100808354040283529160200191610300565b820191906000526020600020905b8154815290600101906020018083116102e357829003601f168201915b505050505081565b60003073ffffffffffffffffffffffffffffffffffffffff1631905090565b61032f61068c565b73ffffffffffffffffffffffffffffffffffffffff163373ffffffffffffffffffffffffffffffffffffffff1614151561036857600080fd5b806006908051906020019061037e929190611821565b507f71f1a5645e51a2da828ffcf79cc17da88eb25e1bca8b9dced23210847a4769c1816040518080602001828103825283818151815260200191508051906020019080838360005b838110156103e15780820151818401526020810190506103c6565b50505050905090810190601f16801561040e5780820380516001836020036101000a031916815260200191505b509250505060405180910390a15050565b505050565b3073ffffffffffffffffffffffffffffffffffffffff163161047a6040805190810160405280600381526020017f55524c00000000000000000000000000000000000000000000000000000000008152506109ea565b1115610539577f621c2856e3b87f81235f8ac8a22bbb40a0142961960710d00b2b6c380902b57e60405180806020018281038252604b8152602001807f4f7261636c697a6520717565727920776173204e4f542073656e742c20706c6581526020017f6173652061646420736f6d652045544820746f20636f76657220666f7220746881526020017f652071756572792066656500000000000000000000000000000000000000000081525060600191505060405180910390a161068a565b7f621c2856e3b87f81235f8ac8a22bbb40a0142961960710d00b2b6c380902b57e6040518080602001828103825260358152602001807f4f7261636c697a65207175657279207761732073656e742c207374616e64696e81526020017f6720627920666f722074686520616e737765722e2e000000000000000000000081525060400191505060405180910390a16106886040805190810160405280600381526020017f55524c0000000000000000000000000000000000000000000000000000000000815250608060405190810160405280604181526020017f6a736f6e2868747470733a2f2f6170692e636f696e626173652e636f6d2f763281526020017f2f7072696365732f4554482d5553442f73706f74292e646174612e616d6f756e81526020017f7400000000000000000000000000000000000000000000000000000000000000815250610dba565b505b565b6000806000809054906101000a900473ffffffffffffffffffffffffffffffffffffffff1673ffffffffffffffffffffffffffffffffffffffff1614806106fc575060006106fa6000809054906101000a900473ffffffffffffffffffffffffffffffffffffffff1661135c565b145b1561070d5761070b6000611367565b505b6000809054906101000a900473ffffffffffffffffffffffffffffffffffffffff1673ffffffffffffffffffffffffffffffffffffffff166338cc48316040518163ffffffff167c0100000000000000000000000000000000000000000000000000000000028152600401602060405180830381600087803b15801561079257600080fd5b505af11580156107a6573d6000803e3d6000fd5b505050506040513d60208110156107bc57600080fd5b810190808051906020019092919050505073ffffffffffffffffffffffffffffffffffffffff16600160009054906101000a900473ffffffffffffffffffffffffffffffffffffffff1673ffffffffffffffffffffffffffffffffffffffff16141515610924576000809054906101000a900473ffffffffffffffffffffffffffffffffffffffff1673ffffffffffffffffffffffffffffffffffffffff166338cc48316040518163ffffffff167c0100000000000000000000000000000000000000000000000000000000028152600401602060405180830381600087803b1580156108a857600080fd5b505af11580156108bc573d6000803e3d6000fd5b505050506040513d60208110156108d257600080fd5b8101908080519060200190929190505050600160006101000a81548173ffffffffffffffffffffffffffffffffffffffff021916908373ffffffffffffffffffffffffffffffffffffffff1602179055505b600160009054906101000a900473ffffffffffffffffffffffffffffffffffffffff1673ffffffffffffffffffffffffffffffffffffffff1663c281d19e6040518163ffffffff167c0100000000000000000000000000000000000000000000000000000000028152600401602060405180830381600087803b1580156109aa57600080fd5b505af11580156109be573d6000803e3d6000fd5b505050506040513d60208110156109d457600080fd5b8101908080519060200190929190505050905090565b6000806000809054906101000a900473ffffffffffffffffffffffffffffffffffffffff1673ffffffffffffffffffffffffffffffffffffffff161480610a5a57506000610a586000809054906101000a900473ffffffffffffffffffffffffffffffffffffffff1661135c565b145b15610a6b57610a696000611367565b505b6000809054906101000a900473ffffffffffffffffffffffffffffffffffffffff1673ffffffffffffffffffffffffffffffffffffffff166338cc48316040518163ffffffff167c0100000000000000000000000000000000000000000000000000000000028152600401602060405180830381600087803b158015610af057600080fd5b505af1158015610b04573d6000803e3d6000fd5b505050506040513d6020811015610b1a57600080fd5b810190808051906020019092919050505073ffffffffffffffffffffffffffffffffffffffff16600160009054906101000a900473ffffffffffffffffffffffffffffffffffffffff1673ffffffffffffffffffffffffffffffffffffffff16141515610c82576000809054906101000a900473ffffffffffffffffffffffffffffffffffffffff1673ffffffffffffffffffffffffffffffffffffffff166338cc48316040518163ffffffff167c0100000000000000000000000000000000000000000000000000000000028152600401602060405180830381600087803b158015610c0657600080fd5b505af1158015610c1a573d6000803e3d6000fd5b505050506040513d6020811015610c3057600080fd5b8101908080519060200190929190505050600160006101000a81548173ffffffffffffffffffffffffffffffffffffffff021916908373ffffffffffffffffffffffffffffffffffffffff1602179055505b600160009054906101000a900473ffffffffffffffffffffffffffffffffffffffff1673ffffffffffffffffffffffffffffffffffffffff1663524f3889836040518263ffffffff167c01000000000000000000000000000000000000000000000000000000000281526004018080602001828103825283818151815260200191508051906020019080838360005b83811015610d2c578082015181840152602081019050610d11565b50505050905090810190601f168015610d595780820380516001836020036101000a031916815260200191505b5092505050602060405180830381600087803b158015610d7857600080fd5b505af1158015610d8c573d6000803e3d6000fd5b505050506040513d6020811015610da257600080fd5b81019080805190602001909291905050509050919050565b60008060008060009054906101000a900473ffffffffffffffffffffffffffffffffffffffff1673ffffffffffffffffffffffffffffffffffffffff161480610e2c57506000610e2a6000809054906101000a900473ffffffffffffffffffffffffffffffffffffffff1661135c565b145b15610e3d57610e3b6000611367565b505b6000809054906101000a900473ffffffffffffffffffffffffffffffffffffffff1673ffffffffffffffffffffffffffffffffffffffff166338cc48316040518163ffffffff167c0100000000000000000000000000000000000000000000000000000000028152600401602060405180830381600087803b158015610ec257600080fd5b505af1158015610ed6573d6000803e3d6000fd5b505050506040513d6020811015610eec57600080fd5b810190808051906020019092919050505073ffffffffffffffffffffffffffffffffffffffff16600160009054906101000a900473ffffffffffffffffffffffffffffffffffffffff1673ffffffffffffffffffffffffffffffffffffffff16141515611054576000809054906101000a900473ffffffffffffffffffffffffffffffffffffffff1673ffffffffffffffffffffffffffffffffffffffff166338cc48316040518163ffffffff167c0100000000000000000000000000000000000000000000000000000000028152600401602060405180830381600087803b158015610fd857600080fd5b505af1158015610fec573d6000803e3d6000fd5b505050506040513d602081101561100257600080fd5b8101908080519060200190929190505050600160006101000a81548173ffffffffffffffffffffffffffffffffffffffff021916908373ffffffffffffffffffffffffffffffffffffffff1602179055505b600160009054906101000a900473ffffffffffffffffffffffffffffffffffffffff1673ffffffffffffffffffffffffffffffffffffffff1663524f3889856040518263ffffffff167c01000000000000000000000000000000000000000000000000000000000281526004018080602001828103825283818151815260200191508051906020019080838360005b838110156110fe5780820151818401526020810190506110e3565b50505050905090810190601f16801561112b5780820380516001836020036101000a031916815260200191505b5092505050602060405180830381600087803b15801561114a57600080fd5b505af115801561115e573d6000803e3d6000fd5b505050506040513d602081101561117457600080fd5b8101908080519060200190929190505050905062030d403a02670de0b6b3a7640000018111156111aa5760006001029150611355565b600160009054906101000a900473ffffffffffffffffffffffffffffffffffffffff1673ffffffffffffffffffffffffffffffffffffffff1663adf59f9982600087876040518563ffffffff167c0100000000000000000000000000000000000000000000000000000000028152600401808481526020018060200180602001838103835285818151815260200191508051906020019080838360005b83811015611262578082015181840152602081019050611247565b50505050905090810190601f16801561128f5780820380516001836020036101000a031916815260200191505b50838103825284818151815260200191508051906020019080838360005b838110156112c85780820151818401526020810190506112ad565b50505050905090810190601f1680156112f55780820380516001836020036101000a031916815260200191505b50955050505050506020604051808303818588803b15801561131657600080fd5b505af115801561132a573d6000803e3d6000fd5b50505050506040513d602081101561134157600080fd5b810190808051906020019092919050505091505b5092915050565b6000813b9050919050565b6000611371611378565b9050919050565b600080611398731d3b2638a7cc9f2cb3d298a3da7a90b67e5506ed61135c565b111561143957731d3b2638a7cc9f2cb3d298a3da7a90b67e5506ed6000806101000a81548173ffffffffffffffffffffffffffffffffffffffff021916908373ffffffffffffffffffffffffffffffffffffffff1602179055506114306040805190810160405280600b81526020017f6574685f6d61696e6e6574000000000000000000000000000000000000000000815250611807565b60019050611804565b600061145873c03a2615d5efaf5f49f60b7bb6583eaec212fdf161135c565b11156114f95773c03a2615d5efaf5f49f60b7bb6583eaec212fdf16000806101000a81548173ffffffffffffffffffffffffffffffffffffffff021916908373ffffffffffffffffffffffffffffffffffffffff1602179055506114f06040805190810160405280600c81526020017f6574685f726f707374656e330000000000000000000000000000000000000000815250611807565b60019050611804565b600061151873b7a07bcf2ba2f2703b24c0691b5278999c59ac7e61135c565b11156115b95773b7a07bcf2ba2f2703b24c0691b5278999c59ac7e6000806101000a81548173ffffffffffffffffffffffffffffffffffffffff021916908373ffffffffffffffffffffffffffffffffffffffff1602179055506115b06040805190810160405280600981526020017f6574685f6b6f76616e0000000000000000000000000000000000000000000000815250611807565b60019050611804565b60006115d873146500cfd35b22e4a392fe0adc06de1a1368ed4861135c565b11156116795773146500cfd35b22e4a392fe0adc06de1a1368ed486000806101000a81548173ffffffffffffffffffffffffffffffffffffffff021916908373ffffffffffffffffffffffffffffffffffffffff1602179055506116706040805190810160405280600b81526020017f6574685f72696e6b656279000000000000000000000000000000000000000000815250611807565b60019050611804565b6000611698736f485c8bf6fc43ea212e93bbf8ce046c7f1cb47561135c565b11156116fb57736f485c8bf6fc43ea212e93bbf8ce046c7f1cb4756000806101000a81548173ffffffffffffffffffffffffffffffffffffffff021916908373ffffffffffffffffffffffffffffffffffffffff16021790555060019050611804565b600061171a7320e12a1f859b3feae5fb2a0a32c18f5a65555bbf61135c565b111561177d577320e12a1f859b3feae5fb2a0a32c18f5a65555bbf6000806101000a81548173ffffffffffffffffffffffffffffffffffffffff021916908373ffffffffffffffffffffffffffffffffffffffff16021790555060019050611804565b600061179c7351efaf4c8b3c9afbd5ab9f4bbc82784ab6ef8faa61135c565b11156117ff577351efaf4c8b3c9afbd5ab9f4bbc82784ab6ef8faa6000806101000a81548173ffffffffffffffffffffffffffffffffffffffff021916908373ffffffffffffffffffffffffffffffffffffffff16021790555060019050611804565b600090505b90565b806002908051906020019061181d929190611821565b5050565b828054600181600116156101000203166002900490600052602060002090601f016020900481019282601f1061186257805160ff1916838001178555611890565b82800160010185558215611890579182015b8281111561188f578251825591602001919060010190611874565b5b50905061189d91906118a1565b5090565b6118c391905b808211156118bf5760008160009055506001016118a7565b5090565b905600a165627a7a72305820de4e2ffc44b5d7a36696ab691363223655d067481832b2baad63205ac597d28d0029",
  "source": "pragma solidity ^0.4.24;\r\n\r\nimport \"./usingOraclize.sol\";\r\n\r\ncontract PriceOracle is usingOraclize {\r\n    address owner;\r\n    string public ETHUSDSTRING;\r\n\r\n    event LogPriceUpdated(string price);\r\n    event LogNewOraclizeQuery(string description);\r\n    event LogUpdate(address indexed _owner, uint indexed _balance);\r\n\r\n    //Constructor\r\n    constructor() payable public{\r\n        owner = msg.sender;\r\n        emit LogUpdate(owner, address(this).balance);\r\n        OAR = OraclizeAddrResolverI(0xE2b2C6e4E5E23B0132dC35EC7e3f763a7C2098fe);\r\n        /*updatePrice();*/\r\n    }\r\n\r\n    function __callback(bytes32 myid, string result){\r\n        if (msg.sender != oraclize_cbAddress()) revert();\r\n        ETHUSDSTRING = result;\r\n        emit LogPriceUpdated(result);\r\n        /*        updatePrice();*/\r\n    }\r\n\r\n    function getBalance() external returns (uint _balance) {\r\n        return address(this).balance;\r\n    }\r\n\r\n    // get current price of ETH in USD from kraken\r\n    function updatePrice() external payable {\r\n        if (oraclize_getPrice(\"URL\") > address(this).balance) {\r\n            emit LogNewOraclizeQuery(\"Oraclize query was NOT sent, please add some ETH to cover for the query fee\");\r\n        } else {\r\n            emit LogNewOraclizeQuery(\"Oraclize query was sent, standing by for the answer..\");\r\n            oraclize_query(\"URL\", \"json(https://api.coinbase.com/v2/prices/ETH-USD/spot).data.amount\");\r\n        }\r\n    }\r\n\r\n}",
  "sourcePath": "C:\\Users\\petri\\Desktop\\CryptoTickets\\contracts\\PriceOracle.sol",
  "compiler": {
    "name": "solc",
    "version": "0.4.24+commit.e67f0147.Emscripten.clang"
  },
  "schemaVersion": "2.0.1",
  "updatedAt": "2019-05-02T09:46:29.493Z"
}