{
  "contractName": "Ticket",
  "abi": [
    {
      "constant": false,
      "inputs": [
        {
          "name": "_accountType",
          "type": "uint8"
        },
        {
          "name": "_username",
          "type": "string"
        },
        {
          "name": "_email",
          "type": "bytes32"
        }
      ],
      "name": "registerNewUser",
      "outputs": [],
      "payable": false,
      "stateMutability": "nonpayable",
      "type": "function"
    },
    {
      "constant": false,
      "inputs": [
        {
          "name": "_id",
          "type": "uint256"
        },
        {
          "name": "_ticketsToSale",
          "type": "uint32"
        }
      ],
      "name": "modifyEventNoTickets",
      "outputs": [],
      "payable": false,
      "stateMutability": "nonpayable",
      "type": "function"
    },
    {
      "constant": true,
      "inputs": [
        {
          "name": "",
          "type": "uint256"
        }
      ],
      "name": "ticketToOwner",
      "outputs": [
        {
          "name": "",
          "type": "address"
        }
      ],
      "payable": false,
      "stateMutability": "view",
      "type": "function"
    },
    {
      "constant": false,
      "inputs": [
        {
          "name": "_id",
          "type": "uint256"
        },
        {
          "name": "_price",
          "type": "uint32"
        }
      ],
      "name": "modifyEventPrice",
      "outputs": [],
      "payable": false,
      "stateMutability": "nonpayable",
      "type": "function"
    },
    {
      "constant": false,
      "inputs": [
        {
          "name": "_id",
          "type": "uint256"
        },
        {
          "name": "_picture",
          "type": "string"
        }
      ],
      "name": "modifyEventPicture",
      "outputs": [],
      "payable": false,
      "stateMutability": "nonpayable",
      "type": "function"
    },
    {
      "constant": true,
      "inputs": [
        {
          "name": "",
          "type": "uint256"
        }
      ],
      "name": "eventToOwner",
      "outputs": [
        {
          "name": "",
          "type": "address"
        }
      ],
      "payable": false,
      "stateMutability": "view",
      "type": "function"
    },
    {
      "constant": true,
      "inputs": [],
      "name": "getUsername",
      "outputs": [
        {
          "name": "",
          "type": "string"
        }
      ],
      "payable": false,
      "stateMutability": "view",
      "type": "function"
    },
    {
      "constant": true,
      "inputs": [],
      "name": "hasAccount",
      "outputs": [
        {
          "name": "",
          "type": "bool"
        }
      ],
      "payable": false,
      "stateMutability": "view",
      "type": "function"
    },
    {
      "constant": true,
      "inputs": [
        {
          "name": "",
          "type": "address"
        }
      ],
      "name": "ticketOwnerCount",
      "outputs": [
        {
          "name": "",
          "type": "uint256"
        }
      ],
      "payable": false,
      "stateMutability": "view",
      "type": "function"
    },
    {
      "constant": true,
      "inputs": [],
      "name": "accountType",
      "outputs": [
        {
          "name": "",
          "type": "uint256"
        }
      ],
      "payable": false,
      "stateMutability": "view",
      "type": "function"
    },
    {
      "constant": false,
      "inputs": [
        {
          "name": "_badUser",
          "type": "address"
        }
      ],
      "name": "removeUser",
      "outputs": [
        {
          "name": "success",
          "type": "bool"
        }
      ],
      "payable": false,
      "stateMutability": "nonpayable",
      "type": "function"
    },
    {
      "constant": false,
      "inputs": [
        {
          "name": "_id",
          "type": "uint256"
        },
        {
          "name": "_title",
          "type": "bytes32"
        }
      ],
      "name": "modifyEventTitle",
      "outputs": [],
      "payable": false,
      "stateMutability": "nonpayable",
      "type": "function"
    },
    {
      "constant": true,
      "inputs": [
        {
          "name": "",
          "type": "address"
        }
      ],
      "name": "eventOwnerCount",
      "outputs": [
        {
          "name": "",
          "type": "uint256"
        }
      ],
      "payable": false,
      "stateMutability": "view",
      "type": "function"
    },
    {
      "constant": true,
      "inputs": [
        {
          "name": "",
          "type": "address"
        }
      ],
      "name": "users",
      "outputs": [
        {
          "name": "owner",
          "type": "address"
        },
        {
          "name": "accountType",
          "type": "uint8"
        },
        {
          "name": "username",
          "type": "string"
        },
        {
          "name": "email",
          "type": "bytes32"
        }
      ],
      "payable": false,
      "stateMutability": "view",
      "type": "function"
    },
    {
      "constant": false,
      "inputs": [
        {
          "name": "_title",
          "type": "bytes32"
        },
        {
          "name": "_details",
          "type": "string"
        },
        {
          "name": "_picture",
          "type": "string"
        },
        {
          "name": "_ticketsToSale",
          "type": "uint32"
        },
        {
          "name": "_price",
          "type": "uint32"
        },
        {
          "name": "_allowResale",
          "type": "bool"
        }
      ],
      "name": "createEvent",
      "outputs": [],
      "payable": false,
      "stateMutability": "nonpayable",
      "type": "function"
    },
    {
      "constant": true,
      "inputs": [
        {
          "name": "",
          "type": "uint256"
        }
      ],
      "name": "ticketsArray",
      "outputs": [
        {
          "name": "owner",
          "type": "address"
        },
        {
          "name": "hash",
          "type": "address"
        },
        {
          "name": "price",
          "type": "uint256"
        },
        {
          "name": "forSale",
          "type": "bool"
        },
        {
          "name": "ticketId",
          "type": "uint256"
        },
        {
          "name": "eventId",
          "type": "uint256"
        }
      ],
      "payable": false,
      "stateMutability": "view",
      "type": "function"
    },
    {
      "constant": true,
      "inputs": [
        {
          "name": "",
          "type": "uint256"
        }
      ],
      "name": "eventArray",
      "outputs": [
        {
          "name": "owner",
          "type": "address"
        },
        {
          "name": "title",
          "type": "bytes32"
        },
        {
          "name": "description",
          "type": "string"
        },
        {
          "name": "picture",
          "type": "string"
        },
        {
          "name": "ticketsToSale",
          "type": "uint32"
        },
        {
          "name": "price",
          "type": "uint32"
        },
        {
          "name": "allowResale",
          "type": "bool"
        },
        {
          "name": "id",
          "type": "uint256"
        }
      ],
      "payable": false,
      "stateMutability": "view",
      "type": "function"
    },
    {
      "constant": true,
      "inputs": [],
      "name": "getEventArraySize",
      "outputs": [
        {
          "name": "",
          "type": "uint256"
        }
      ],
      "payable": false,
      "stateMutability": "view",
      "type": "function"
    },
    {
      "constant": false,
      "inputs": [
        {
          "name": "_id",
          "type": "uint256"
        },
        {
          "name": "_description",
          "type": "string"
        }
      ],
      "name": "modifyEventDescription",
      "outputs": [],
      "payable": false,
      "stateMutability": "nonpayable",
      "type": "function"
    },
    {
      "inputs": [],
      "payable": false,
      "stateMutability": "nonpayable",
      "type": "constructor"
    },
    {
      "anonymous": false,
      "inputs": [
        {
          "indexed": false,
          "name": "eventId",
          "type": "uint256"
        },
        {
          "indexed": false,
          "name": "_account",
          "type": "address"
        },
        {
          "indexed": false,
          "name": "_title",
          "type": "bytes32"
        },
        {
          "indexed": false,
          "name": "_details",
          "type": "string"
        },
        {
          "indexed": false,
          "name": "_picture",
          "type": "string"
        },
        {
          "indexed": false,
          "name": "_ticketToSale",
          "type": "uint32"
        },
        {
          "indexed": false,
          "name": "_price",
          "type": "uint32"
        }
      ],
      "name": "NewEvent",
      "type": "event"
    },
    {
      "constant": true,
      "inputs": [],
      "name": "getTicketsArraySize",
      "outputs": [
        {
          "name": "",
          "type": "uint256"
        }
      ],
      "payable": false,
      "stateMutability": "view",
      "type": "function"
    },
    {
      "constant": false,
      "inputs": [
        {
          "name": "_ticketId",
          "type": "uint256"
        },
        {
          "name": "_forSale",
          "type": "bool"
        },
        {
          "name": "_newSellingPrice",
          "type": "uint256"
        }
      ],
      "name": "setTicketForSale",
      "outputs": [],
      "payable": false,
      "stateMutability": "nonpayable",
      "type": "function"
    }
  ],
  "bytecode": "0x60806040526000600455600060085534801561001a57600080fd5b5033600160006101000a81548173ffffffffffffffffffffffffffffffffffffffff021916908373ffffffffffffffffffffffffffffffffffffffff1602179055506123268061006b6000396000f30060806040526004361061011d576000357c0100000000000000000000000000000000000000000000000000000000900463ffffffff168063061887bf1461012257806320a60b0e146101785780632a9585e1146101a35780632b08e824146101e05780632d1410b71461024d5780632f6fe8e01461028a5780633ff96222146102cf578063681f3e6d1461033c5780638f76a380146103cc57806391a40b3f146103fb57806395eec3c914610452578063985751881461047d578063a463650d146104d8578063a7ebe3bb14610513578063a87430ba1461056a578063b056ad4614610675578063b4f8eadd14610702578063b6c96106146107c2578063b9c7a3b414610805578063bd4e64a014610991578063e96f54d3146109bc575b600080fd5b34801561012e57600080fd5b50610176600480360381019080803560ff1690602001909291908035906020019082018035906020019190919293919293908035600019169060200190929190505050610a01565b005b34801561018457600080fd5b5061018d610d10565b6040518082815260200191505060405180910390f35b3480156101af57600080fd5b506101de60048036038101908080359060200190929190803563ffffffff169060200190929190505050610d1d565b005b3480156101ec57600080fd5b5061020b60048036038101908080359060200190929190505050610e38565b604051808273ffffffffffffffffffffffffffffffffffffffff1673ffffffffffffffffffffffffffffffffffffffff16815260200191505060405180910390f35b34801561025957600080fd5b5061028860048036038101908080359060200190929190803563ffffffff169060200190929190505050610e6b565b005b34801561029657600080fd5b506102cd60048036038101908080359060200190929190803590602001908201803590602001919091929391929390505050610f86565b005b3480156102db57600080fd5b506102fa60048036038101908080359060200190929190505050611093565b604051808273ffffffffffffffffffffffffffffffffffffffff1673ffffffffffffffffffffffffffffffffffffffff16815260200191505060405180910390f35b34801561034857600080fd5b506103516110c6565b6040518080602001828103825283818151815260200191508051906020019080838360005b83811015610391578082015181840152602081019050610376565b50505050905090810190601f1680156103be5780820380516001836020036101000a031916815260200191505b509250505060405180910390f35b3480156103d857600080fd5b506103e1611244565b604051808215151515815260200191505060405180910390f35b34801561040757600080fd5b5061043c600480360381019080803573ffffffffffffffffffffffffffffffffffffffff169060200190929190505050611267565b6040518082815260200191505060405180910390f35b34801561045e57600080fd5b5061046761127f565b6040518082815260200191505060405180910390f35b34801561048957600080fd5b506104be600480360381019080803573ffffffffffffffffffffffffffffffffffffffff1690602001909291905050506112d9565b604051808215151515815260200191505060405180910390f35b3480156104e457600080fd5b506105116004803603810190808035906020019092919080356000191690602001909291905050506113d5565b005b34801561051f57600080fd5b50610554600480360381019080803573ffffffffffffffffffffffffffffffffffffffff1690602001909291905050506114da565b6040518082815260200191505060405180910390f35b34801561057657600080fd5b506105ab600480360381019080803573ffffffffffffffffffffffffffffffffffffffff1690602001909291905050506114f2565b604051808573ffffffffffffffffffffffffffffffffffffffff1673ffffffffffffffffffffffffffffffffffffffff1681526020018460ff1660ff168152602001806020018360001916600019168152602001828103825284818151815260200191508051906020019080838360005b8381101561063757808201518184015260208101905061061c565b50505050905090810190601f1680156106645780820380516001836020036101000a031916815260200191505b509550505050505060405180910390f35b34801561068157600080fd5b506107006004803603810190808035600019169060200190929190803590602001908201803590602001919091929391929390803590602001908201803590602001919091929391929390803563ffffffff169060200190929190803563ffffffff1690602001909291908035151590602001909291905050506115e7565b005b34801561070e57600080fd5b5061072d60048036038101908080359060200190929190505050611a45565b604051808773ffffffffffffffffffffffffffffffffffffffff1673ffffffffffffffffffffffffffffffffffffffff1681526020018673ffffffffffffffffffffffffffffffffffffffff1673ffffffffffffffffffffffffffffffffffffffff16815260200185815260200184151515158152602001838152602001828152602001965050505050505060405180910390f35b3480156107ce57600080fd5b506108036004803603810190808035906020019092919080351515906020019092919080359060200190929190505050611add565b005b34801561081157600080fd5b5061083060048036038101908080359060200190929190505050611d35565b604051808973ffffffffffffffffffffffffffffffffffffffff1673ffffffffffffffffffffffffffffffffffffffff168152602001886000191660001916815260200180602001806020018763ffffffff1663ffffffff1681526020018663ffffffff1663ffffffff16815260200185151515158152602001848152602001838103835289818151815260200191508051906020019080838360005b838110156108e85780820151818401526020810190506108cd565b50505050905090810190601f1680156109155780820380516001836020036101000a031916815260200191505b50838103825288818151815260200191508051906020019080838360005b8381101561094e578082015181840152602081019050610933565b50505050905090810190601f16801561097b5780820380516001836020036101000a031916815260200191505b509a505050505050505050505060405180910390f35b34801561099d57600080fd5b506109a6611f09565b6040518082815260200191505060405180910390f35b3480156109c857600080fd5b506109ff60048036038101908080359060200190929190803590602001908201803590602001919091929391929390505050611f16565b005b3373ffffffffffffffffffffffffffffffffffffffff16600260003373ffffffffffffffffffffffffffffffffffffffff1673ffffffffffffffffffffffffffffffffffffffff16815260200190815260200160002060000160009054906101000a900473ffffffffffffffffffffffffffffffffffffffff1673ffffffffffffffffffffffffffffffffffffffff1614151515610a9e57600080fd5b6000600260003373ffffffffffffffffffffffffffffffffffffffff1673ffffffffffffffffffffffffffffffffffffffff168152602001908152602001600020600101805460018160011615610100020316600290049050148015610b08575060008383905014155b15610d0a57600015156003848460405180838380828437820191505092505050908152602001604051809103902060009054906101000a900460ff161515141515610b5257600080fd5b33600260003373ffffffffffffffffffffffffffffffffffffffff1673ffffffffffffffffffffffffffffffffffffffff16815260200190815260200160002060000160006101000a81548173ffffffffffffffffffffffffffffffffffffffff021916908373ffffffffffffffffffffffffffffffffffffffff16021790555083600260003373ffffffffffffffffffffffffffffffffffffffff1673ffffffffffffffffffffffffffffffffffffffff16815260200190815260200160002060000160146101000a81548160ff021916908360ff1602179055508282600260003373ffffffffffffffffffffffffffffffffffffffff1673ffffffffffffffffffffffffffffffffffffffff1681526020019081526020016000206001019190610c7f92919061218d565b5080600260003373ffffffffffffffffffffffffffffffffffffffff1673ffffffffffffffffffffffffffffffffffffffff168152602001908152602001600020600201816000191690555060016003848460405180838380828437820191505092505050908152602001604051809103902060006101000a81548160ff0219169083151502179055505b50505050565b6000600980549050905090565b816006600082815260200190815260200160002060009054906101000a900473ffffffffffffffffffffffffffffffffffffffff1673ffffffffffffffffffffffffffffffffffffffff163373ffffffffffffffffffffffffffffffffffffffff16141515610df4576040517f08c379a000000000000000000000000000000000000000000000000000000000815260040180806020018281038252601b8152602001807f4f6e6c7920746865206f776e65722063616e20646f20746869732e000000000081525060200191505060405180910390fd5b81600584815481101515610e0457fe5b906000526020600020906006020160040160006101000a81548163ffffffff021916908363ffffffff160217905550505050565b600a6020528060005260406000206000915054906101000a900473ffffffffffffffffffffffffffffffffffffffff1681565b816006600082815260200190815260200160002060009054906101000a900473ffffffffffffffffffffffffffffffffffffffff1673ffffffffffffffffffffffffffffffffffffffff163373ffffffffffffffffffffffffffffffffffffffff16141515610f42576040517f08c379a000000000000000000000000000000000000000000000000000000000815260040180806020018281038252601b8152602001807f4f6e6c7920746865206f776e65722063616e20646f20746869732e000000000081525060200191505060405180910390fd5b81600584815481101515610f5257fe5b906000526020600020906006020160040160046101000a81548163ffffffff021916908363ffffffff160217905550505050565b826006600082815260200190815260200160002060009054906101000a900473ffffffffffffffffffffffffffffffffffffffff1673ffffffffffffffffffffffffffffffffffffffff163373ffffffffffffffffffffffffffffffffffffffff1614151561105d576040517f08c379a000000000000000000000000000000000000000000000000000000000815260040180806020018281038252601b8152602001807f4f6e6c7920746865206f776e65722063616e20646f20746869732e000000000081525060200191505060405180910390fd5b828260058681548110151561106e57fe5b9060005260206000209060060201600301919061108c92919061218d565b5050505050565b60066020528060005260406000206000915054906101000a900473ffffffffffffffffffffffffffffffffffffffff1681565b60603373ffffffffffffffffffffffffffffffffffffffff16600260003373ffffffffffffffffffffffffffffffffffffffff1673ffffffffffffffffffffffffffffffffffffffff16815260200190815260200160002060000160009054906101000a900473ffffffffffffffffffffffffffffffffffffffff1673ffffffffffffffffffffffffffffffffffffffff1614151561116457600080fd5b600260003373ffffffffffffffffffffffffffffffffffffffff1673ffffffffffffffffffffffffffffffffffffffff1681526020019081526020016000206001018054600181600116156101000203166002900480601f01602080910402602001604051908101604052809291908181526020018280546001816001161561010002031660029004801561123a5780601f1061120f5761010080835404028352916020019161123a565b820191906000526020600020905b81548152906001019060200180831161121d57829003601f168201915b5050505050905090565b60008060019050600061125561127f565b141561126057600090505b8091505090565b600b6020528060005260406000206000915090505481565b6000600260003373ffffffffffffffffffffffffffffffffffffffff1673ffffffffffffffffffffffffffffffffffffffff16815260200190815260200160002060000160149054906101000a900460ff1660ff16905090565b6000600160009054906101000a900473ffffffffffffffffffffffffffffffffffffffff1673ffffffffffffffffffffffffffffffffffffffff163373ffffffffffffffffffffffffffffffffffffffff1614151561133757600080fd5b600260008373ffffffffffffffffffffffffffffffffffffffff1673ffffffffffffffffffffffffffffffffffffffff168152602001908152602001600020600080820160006101000a81549073ffffffffffffffffffffffffffffffffffffffff02191690556000820160146101000a81549060ff02191690556001820160006113c2919061220d565b6002820160009055505060019050919050565b816006600082815260200190815260200160002060009054906101000a900473ffffffffffffffffffffffffffffffffffffffff1673ffffffffffffffffffffffffffffffffffffffff163373ffffffffffffffffffffffffffffffffffffffff161415156114ac576040517f08c379a000000000000000000000000000000000000000000000000000000000815260040180806020018281038252601b8152602001807f4f6e6c7920746865206f776e65722063616e20646f20746869732e000000000081525060200191505060405180910390fd5b816005848154811015156114bc57fe5b90600052602060002090600602016001018160001916905550505050565b60076020528060005260406000206000915090505481565b60026020528060005260406000206000915090508060000160009054906101000a900473ffffffffffffffffffffffffffffffffffffffff16908060000160149054906101000a900460ff1690806001018054600181600116156101000203166002900480601f0160208091040260200160405190810160405280929190818152602001828054600181600116156101000203166002900480156115d75780601f106115ac576101008083540402835291602001916115d7565b820191906000526020600020905b8154815290600101906020018083116115ba57829003601f168201915b5050505050908060020154905084565b600060028060003373ffffffffffffffffffffffffffffffffffffffff1673ffffffffffffffffffffffffffffffffffffffff16815260200190815260200160002060000160149054906101000a900460ff1660ff1614151561164957600080fd5b60016005610100604051908101604052803373ffffffffffffffffffffffffffffffffffffffff1681526020018c6000191681526020018b8b8080601f016020809104026020016040519081016040528093929190818152602001838380828437820191505050505050815260200189898080601f01602080910402602001604051908101604052809392919081815260200183838082843782019150505050505081526020018763ffffffff1681526020018663ffffffff16815260200185151581526020016004548152509080600181540180825580915050906001820390600052602060002090600602016000909192909190915060008201518160000160006101000a81548173ffffffffffffffffffffffffffffffffffffffff021916908373ffffffffffffffffffffffffffffffffffffffff1602179055506020820151816001019060001916905560408201518160020190805190602001906117b4929190612255565b5060608201518160030190805190602001906117d1929190612255565b5060808201518160040160006101000a81548163ffffffff021916908363ffffffff16021790555060a08201518160040160046101000a81548163ffffffff021916908363ffffffff16021790555060c08201518160040160086101000a81548160ff02191690831515021790555060e082015181600501555050039050336006600083815260200190815260200160002060006101000a81548173ffffffffffffffffffffffffffffffffffffffff021916908373ffffffffffffffffffffffffffffffffffffffff1602179055506118b7600160045461202390919063ffffffff16565b6004819055506119106001600760003373ffffffffffffffffffffffffffffffffffffffff1673ffffffffffffffffffffffffffffffffffffffff1681526020019081526020016000205461202390919063ffffffff16565b600760003373ffffffffffffffffffffffffffffffffffffffff1673ffffffffffffffffffffffffffffffffffffffff168152602001908152602001600020819055507fbdcfb372a04d92208c9311496eadb40d741bb0c3641cbd80e3a6f7f312155b6f81338b8b8b8b8b8b8b604051808a81526020018973ffffffffffffffffffffffffffffffffffffffff1673ffffffffffffffffffffffffffffffffffffffff168152602001886000191660001916815260200180602001806020018563ffffffff1663ffffffff1681526020018463ffffffff1663ffffffff16815260200183810383528989828181526020019250808284378201915050838103825287878281815260200192508082843782019150509b50505050505050505050505060405180910390a1505050505050505050565b600981815481101515611a5457fe5b90600052602060002090600602016000915090508060000160009054906101000a900473ffffffffffffffffffffffffffffffffffffffff16908060010160009054906101000a900473ffffffffffffffffffffffffffffffffffffffff16908060020154908060030160009054906101000a900460ff16908060040154908060050154905086565b82600a600082815260200190815260200160002060009054906101000a900473ffffffffffffffffffffffffffffffffffffffff1673ffffffffffffffffffffffffffffffffffffffff163373ffffffffffffffffffffffffffffffffffffffff16141515611bb4576040517f08c379a000000000000000000000000000000000000000000000000000000000815260040180806020018281038252601b8152602001807f4f6e6c7920746865206f776e65722063616e20646f20746869732e000000000081525060200191505060405180910390fd5b600115156005600986815481101515611bc957fe5b906000526020600020906006020160050154815481101515611be757fe5b906000526020600020906006020160040160089054906101000a900460ff161515141515611c1457600080fd5b60011515600985815481101515611c2757fe5b906000526020600020906006020160030160009054906101000a900460ff1615151415611c9e5760001515831515141515611c6157600080fd5b82600985815481101515611c7157fe5b906000526020600020906006020160030160006101000a81548160ff021916908315150217905550611d2f565b60001515600985815481101515611cb157fe5b906000526020600020906006020160030160009054906101000a900460ff1615151415611d2e5760011515831515141515611ceb57600080fd5b82600985815481101515611cfb57fe5b906000526020600020906006020160030160006101000a81548160ff021916908315150217905550611d2d8483612041565b5b5b50505050565b600581815481101515611d4457fe5b90600052602060002090600602016000915090508060000160009054906101000a900473ffffffffffffffffffffffffffffffffffffffff1690806001015490806002018054600181600116156101000203166002900480601f016020809104026020016040519081016040528092919081815260200182805460018160011615610100020316600290048015611e1c5780601f10611df157610100808354040283529160200191611e1c565b820191906000526020600020905b815481529060010190602001808311611dff57829003601f168201915b505050505090806003018054600181600116156101000203166002900480601f016020809104026020016040519081016040528092919081815260200182805460018160011615610100020316600290048015611eba5780601f10611e8f57610100808354040283529160200191611eba565b820191906000526020600020905b815481529060010190602001808311611e9d57829003601f168201915b5050505050908060040160009054906101000a900463ffffffff16908060040160049054906101000a900463ffffffff16908060040160089054906101000a900460ff16908060050154905088565b6000600580549050905090565b826006600082815260200190815260200160002060009054906101000a900473ffffffffffffffffffffffffffffffffffffffff1673ffffffffffffffffffffffffffffffffffffffff163373ffffffffffffffffffffffffffffffffffffffff16141515611fed576040517f08c379a000000000000000000000000000000000000000000000000000000000815260040180806020018281038252601b8152602001807f4f6e6c7920746865206f776e65722063616e20646f20746869732e000000000081525060200191505060405180910390fd5b8282600586815481101515611ffe57fe5b9060005260206000209060060201600201919061201c92919061218d565b5050505050565b600080828401905083811015151561203757fe5b8091505092915050565b60008083600a600082815260200190815260200160002060009054906101000a900473ffffffffffffffffffffffffffffffffffffffff1673ffffffffffffffffffffffffffffffffffffffff163373ffffffffffffffffffffffffffffffffffffffff1614151561211b576040517f08c379a000000000000000000000000000000000000000000000000000000000815260040180806020018281038252601b8152602001807f4f6e6c7920746865206f776e65722063616e20646f20746869732e000000000081525060200191505060405180910390fd5b60098581548110151561212a57fe5b90600052602060002090600602016002015492506064600a840281151561214d57fe5b048301915081841115151561216157600080fd5b8360098681548110151561217157fe5b9060005260206000209060060201600201819055505050505050565b828054600181600116156101000203166002900490600052602060002090601f016020900481019282601f106121ce57803560ff19168380011785556121fc565b828001600101855582156121fc579182015b828111156121fb5782358255916020019190600101906121e0565b5b50905061220991906122d5565b5090565b50805460018160011615610100020316600290046000825580601f106122335750612252565b601f01602090049060005260206000209081019061225191906122d5565b5b50565b828054600181600116156101000203166002900490600052602060002090601f016020900481019282601f1061229657805160ff19168380011785556122c4565b828001600101855582156122c4579182015b828111156122c35782518255916020019190600101906122a8565b5b5090506122d191906122d5565b5090565b6122f791905b808211156122f35760008160009055506001016122db565b5090565b905600a165627a7a72305820186b11491655ac99a0104519a99d7c51e7e821d1db724eec6923087aff541c3d0029",
  "source": "pragma solidity ^0.4.24;\r\nimport \"./UserType.sol\";\r\nimport \"./safemath.sol\";\r\nimport \"./Event.sol\";\r\n\r\ncontract Ticket is UserType, Event{\r\n    uint ticketId = 0;\r\n    using SafeMath for uint256;\r\n\r\n    struct TicketDetails{\r\n        address owner;\r\n        address hash;// unique identifier\r\n        uint price;\r\n        bool forSale;\r\n        uint ticketId;\r\n        uint eventId; // same as id in the EventDetails struct\r\n    }\r\n\r\n    TicketDetails[] public ticketsArray; //for event managers to have access a database of all ticket hashes\r\n\r\n    mapping (uint => address) public ticketToOwner; // Keeps track of the address that owns a ticket\r\n    mapping (address => uint) public ticketOwnerCount; //Keeps track of how many tickets a user has\r\n\r\n    constructor() public {\r\n        /*createTicket( 22, 1);*/\r\n    }\r\n\r\n    function createTicket(uint _price, uint _eventId) internal{\r\n        uint id = ticketsArray.push(TicketDetails(msg.sender, generateUniqueId(), _price, false, ticketId, _eventId)) - 1;\r\n        ticketToOwner[id] = msg.sender;\r\n        ticketOwnerCount[msg.sender] = ticketOwnerCount[msg.sender].add(1);\r\n        ticketId = ticketId.add(1);\r\n    }\r\n\r\n    //Generate a unique ID that looks like an Ethereum address\r\n    function generateUniqueId() internal view returns (address) {\r\n        uint randNonce = 0;\r\n        bytes20 random = bytes2(keccak256(abi.encodePacked(msg.sender, now, randNonce)));\r\n        randNonce++;\r\n        uint addr = 0;\r\n        for (uint index = random.length-1; index+1 > 0; index--) {\r\n            addr += uint(random[index]) * ( 16 ** ((random.length - index - 1) * 2));\r\n        }\r\n        return address(addr);\r\n    }\r\n\r\n    modifier onlyTicketOwner(uint _ticketId){\r\n        require(msg.sender == ticketToOwner[_ticketId], \"Only the owner can do this.\");\r\n        _;\r\n    }\r\n    function getTicketsArraySize() external view returns (uint){\r\n        return ticketsArray.length;\r\n    }\r\n\r\n    function setTicketForSale(uint _ticketId, bool _forSale, uint _newSellingPrice) external onlyTicketOwner(_ticketId){\r\n        require(eventArray[ticketsArray[_ticketId].eventId].allowResale == true);\r\n        if(ticketsArray[_ticketId].forSale == true){\r\n            require(_forSale == false);\r\n            ticketsArray[_ticketId].forSale = _forSale;\r\n        }\r\n        else if(ticketsArray[_ticketId].forSale == false){\r\n            require(_forSale == true);\r\n            ticketsArray[_ticketId].forSale = _forSale;\r\n            setTicketNewPrice(_ticketId, _newSellingPrice);\r\n        }\r\n    }\r\n\r\n    function setTicketNewPrice(uint _ticketId, uint _newSellingPrice) private onlyTicketOwner(_ticketId){\r\n        uint price = ticketsArray[_ticketId].price;\r\n        uint maxPrice = (price + ((price * 10) / 100));\r\n        require(_newSellingPrice <= maxPrice); // the price cannot be higher than the initial price * 10%\r\n        ticketsArray[_ticketId].price = _newSellingPrice;\r\n    }\r\n\r\n    // return array of indexes of user's tickets\r\n/*    function getTicketsByOwner(address _owner) external view returns(uint[]) {\r\n        uint[] memory result = new uint[](ticketOwnerCount[_owner]);\r\n        uint counter = 0;\r\n        for (uint i = 0; i < ticketsArray.length; i++) {\r\n            if (ticketToOwner[i] == _owner) {  // BUG\r\n                result[counter] = i;\r\n                counter++;\r\n            }\r\n        }\r\n        return result;\r\n    }*/\r\n}\r\n\r\n\r\n",
  "sourcePath": "C:\\Users\\petri\\Desktop\\CryptoTickets\\contracts\\Ticket.sol",
  "compiler": {
    "name": "solc",
    "version": "0.4.24+commit.e67f0147.Emscripten.clang"
  },
  "schemaVersion": "2.0.1",
  "updatedAt": "2019-05-02T09:46:29.524Z"
}