{
  "contractName": "Transaction",
  "abi": [
    {
      "constant": true,
      "inputs": [],
      "name": "ETHUSDSTRING",
      "outputs": [
        {
          "name": "",
          "type": "string"
        }
      ],
      "payable": false,
      "stateMutability": "view",
      "type": "function"
    },
    {
      "constant": false,
      "inputs": [
        {
          "name": "_title",
          "type": "string"
        },
        {
          "name": "_details",
          "type": "string"
        },
        {
          "name": "_picture",
          "type": "string"
        },
        {
          "name": "_ticketsToSale",
          "type": "uint256"
        },
        {
          "name": "_price",
          "type": "uint256"
        }
      ],
      "name": "_createEvent",
      "outputs": [],
      "payable": false,
      "stateMutability": "nonpayable",
      "type": "function"
    },
    {
      "constant": true,
      "inputs": [
        {
          "name": "",
          "type": "uint256"
        }
      ],
      "name": "eventToOwner",
      "outputs": [
        {
          "name": "",
          "type": "address"
        }
      ],
      "payable": false,
      "stateMutability": "view",
      "type": "function"
    },
    {
      "constant": true,
      "inputs": [
        {
          "name": "",
          "type": "address"
        }
      ],
      "name": "countEventsByOwner",
      "outputs": [
        {
          "name": "",
          "type": "uint256"
        }
      ],
      "payable": false,
      "stateMutability": "view",
      "type": "function"
    },
    {
      "constant": true,
      "inputs": [],
      "name": "getEventListSize",
      "outputs": [
        {
          "name": "",
          "type": "uint256"
        }
      ],
      "payable": false,
      "stateMutability": "view",
      "type": "function"
    },
    {
      "constant": true,
      "inputs": [
        {
          "name": "",
          "type": "uint256"
        }
      ],
      "name": "eventArray",
      "outputs": [
        {
          "name": "owner",
          "type": "address"
        },
        {
          "name": "title",
          "type": "string"
        },
        {
          "name": "description",
          "type": "string"
        },
        {
          "name": "picture",
          "type": "string"
        },
        {
          "name": "ticketsToSale",
          "type": "uint256"
        },
        {
          "name": "price",
          "type": "uint256"
        },
        {
          "name": "id",
          "type": "uint256"
        }
      ],
      "payable": false,
      "stateMutability": "view",
      "type": "function"
    },
    {
      "inputs": [],
      "payable": true,
      "stateMutability": "payable",
      "type": "constructor"
    },
    {
      "anonymous": false,
      "inputs": [
        {
          "indexed": false,
          "name": "price",
          "type": "string"
        }
      ],
      "name": "LogPriceUpdated",
      "type": "event"
    },
    {
      "anonymous": false,
      "inputs": [
        {
          "indexed": false,
          "name": "description",
          "type": "string"
        }
      ],
      "name": "LogNewOraclizeQuery",
      "type": "event"
    },
    {
      "anonymous": false,
      "inputs": [
        {
          "indexed": true,
          "name": "_owner",
          "type": "address"
        },
        {
          "indexed": true,
          "name": "_balance",
          "type": "uint256"
        }
      ],
      "name": "LogUpdate",
      "type": "event"
    },
    {
      "anonymous": false,
      "inputs": [
        {
          "indexed": false,
          "name": "noTickets",
          "type": "string"
        }
      ],
      "name": "NoTickets",
      "type": "event"
    },
    {
      "anonymous": false,
      "inputs": [
        {
          "indexed": false,
          "name": "eventId",
          "type": "uint256"
        },
        {
          "indexed": false,
          "name": "_account",
          "type": "address"
        },
        {
          "indexed": false,
          "name": "_title",
          "type": "string"
        },
        {
          "indexed": false,
          "name": "_details",
          "type": "string"
        },
        {
          "indexed": false,
          "name": "_picture",
          "type": "string"
        },
        {
          "indexed": false,
          "name": "_ticketToSale",
          "type": "uint256"
        },
        {
          "indexed": false,
          "name": "_price",
          "type": "uint256"
        }
      ],
      "name": "NewEvent",
      "type": "event"
    },
    {
      "constant": false,
      "inputs": [
        {
          "name": "myid",
          "type": "bytes32"
        },
        {
          "name": "result",
          "type": "string"
        }
      ],
      "name": "__callback",
      "outputs": [],
      "payable": false,
      "stateMutability": "nonpayable",
      "type": "function"
    },
    {
      "constant": false,
      "inputs": [
        {
          "name": "myid",
          "type": "bytes32"
        },
        {
          "name": "result",
          "type": "string"
        },
        {
          "name": "proof",
          "type": "bytes"
        }
      ],
      "name": "__callback",
      "outputs": [],
      "payable": false,
      "stateMutability": "nonpayable",
      "type": "function"
    },
    {
      "constant": false,
      "inputs": [],
      "name": "getBalance",
      "outputs": [
        {
          "name": "_balance",
          "type": "uint256"
        }
      ],
      "payable": false,
      "stateMutability": "nonpayable",
      "type": "function"
    },
    {
      "constant": false,
      "inputs": [],
      "name": "updatePrice",
      "outputs": [],
      "payable": true,
      "stateMutability": "payable",
      "type": "function"
    },
    {
      "constant": false,
      "inputs": [
        {
          "name": "_eventId",
          "type": "uint256"
        },
        {
          "name": "moneyToTransfer",
          "type": "uint256"
        }
      ],
      "name": "_buyTicket",
      "outputs": [],
      "payable": true,
      "stateMutability": "payable",
      "type": "function"
    }
  ],
  "bytecode": "0x608060405260008055620001646040805190810160405280600c81526020017f546f6d6f72726f776c616e640000000000000000000000000000000000000000815250606060405190810160405280603681526020017f546f6d6f72726f776c616e6420697320616e20656c656374726f6e696320646181526020017f6e6365206d7573696320666573746976616c202e2e200000000000000000000081525060a060405190810160405280606b81526020017f68747470733a2f2f7777772e746f6d6f72726f776c616e642e636f6d2f73726381526020017f2f46726f6e74656e642f5468656d65732f746f6d6f72726f776c616e642f436f81526020017f72652f4c61796f75742f696d616765732f6f70656e67726170682f746f6d6f7281526020017f726f776c616e642e6a7067000000000000000000000000000000000000000000815250620249f061015d6200033a640100000000026401000000009004565b620002086040805190810160405280600481526020017f54656458000000000000000000000000000000000000000000000000000000008152506040805190810160405280601f81526020017f496e20746865206d696e64206f6620612070726f6372617374696e61746f720081525060e06040519081016040528060a3815260200162003fac60a39139602260166200033a640100000000026401000000009004565b33600960006101000a81548173ffffffffffffffffffffffffffffffffffffffff021916908373ffffffffffffffffffffffffffffffffffffffff1602179055503073ffffffffffffffffffffffffffffffffffffffff1631600960009054906101000a900473ffffffffffffffffffffffffffffffffffffffff1673ffffffffffffffffffffffffffffffffffffffff167fd176e7c6abd789c341ab22cef27aa1fbc7461f5f9d6a6e55faa0b9df32a7051460405160405180910390a3736f485c8bf6fc43ea212e93bbf8ce046c7f1cb475600460006101000a81548173ffffffffffffffffffffffffffffffffffffffff021916908373ffffffffffffffffffffffffffffffffffffffff1602179055506200033462000702640100000000026401000000009004565b62001a53565b600060018060e0604051908101604052803373ffffffffffffffffffffffffffffffffffffffff1681526020018981526020018881526020018781526020018681526020018581526020016000548152509080600181540180825580915050906001820390600052602060002090600702016000909192909190915060008201518160000160006101000a81548173ffffffffffffffffffffffffffffffffffffffff021916908373ffffffffffffffffffffffffffffffffffffffff16021790555060208201518160010190805190602001906200041b9291906200191d565b5060408201518160020190805190602001906200043a9291906200191d565b506060820151816003019080519060200190620004599291906200191d565b506080820151816004015560a0820151816005015560c082015181600601555050039050336002600083815260200190815260200160002060006101000a81548173ffffffffffffffffffffffffffffffffffffffff021916908373ffffffffffffffffffffffffffffffffffffffff160217905550600360003373ffffffffffffffffffffffffffffffffffffffff1673ffffffffffffffffffffffffffffffffffffffff1681526020019081526020016000206000815480929190600101919050555060008081548092919060010191905055507f481e04a8bbe082f51b05cbee66e189f0f5d4c055e46872d1c76d16c782be362881338888888888604051808881526020018773ffffffffffffffffffffffffffffffffffffffff1673ffffffffffffffffffffffffffffffffffffffff168152602001806020018060200180602001868152602001858152602001848103845289818151815260200191508051906020019080838360005b83811015620005e5578082015181840152602081019050620005c8565b50505050905090810190601f168015620006135780820380516001836020036101000a031916815260200191505b50848103835288818151815260200191508051906020019080838360005b838110156200064e57808201518184015260208101905062000631565b50505050905090810190601f1680156200067c5780820380516001836020036101000a031916815260200191505b50848103825287818151815260200191508051906020019080838360005b83811015620006b75780820151818401526020810190506200069a565b50505050905090810190601f168015620006e55780820380516001836020036101000a031916815260200191505b509a505050505050505050505060405180910390a1505050505050565b3073ffffffffffffffffffffffffffffffffffffffff1631620007696040805190810160405280600381526020017f55524c00000000000000000000000000000000000000000000000000000000008152506200098e640100000000026401000000009004565b11156200082a577f621c2856e3b87f81235f8ac8a22bbb40a0142961960710d00b2b6c380902b57e60405180806020018281038252604b8152602001807f4f7261636c697a6520717565727920776173204e4f542073656e742c20706c6581526020017f6173652061646420736f6d652045544820746f20636f76657220666f7220746881526020017f652071756572792066656500000000000000000000000000000000000000000081525060600191505060405180910390a16200098c565b7f621c2856e3b87f81235f8ac8a22bbb40a0142961960710d00b2b6c380902b57e6040518080602001828103825260358152602001807f4f7261636c697a65207175657279207761732073656e742c207374616e64696e81526020017f6720627920666f722074686520616e737765722e2e000000000000000000000081525060400191505060405180910390a16200098a6040805190810160405280600381526020017f55524c0000000000000000000000000000000000000000000000000000000000815250608060405190810160405280604181526020017f6a736f6e2868747470733a2f2f6170692e636f696e626173652e636f6d2f763281526020017f2f7072696365732f4554482d5553442f73706f74292e646174612e616d6f756e81526020017f740000000000000000000000000000000000000000000000000000000000000081525062000d93640100000000026401000000009004565b505b565b600080600460009054906101000a900473ffffffffffffffffffffffffffffffffffffffff1673ffffffffffffffffffffffffffffffffffffffff16148062000a125750600062000a10600460009054906101000a900473ffffffffffffffffffffffffffffffffffffffff1662001375640100000000026401000000009004565b145b1562000a355762000a33600062001380640100000000026401000000009004565b505b600460009054906101000a900473ffffffffffffffffffffffffffffffffffffffff1673ffffffffffffffffffffffffffffffffffffffff166338cc48316040518163ffffffff167c0100000000000000000000000000000000000000000000000000000000028152600401602060405180830381600087803b15801562000abc57600080fd5b505af115801562000ad1573d6000803e3d6000fd5b505050506040513d602081101562000ae857600080fd5b810190808051906020019092919050505073ffffffffffffffffffffffffffffffffffffffff16600560009054906101000a900473ffffffffffffffffffffffffffffffffffffffff1673ffffffffffffffffffffffffffffffffffffffff1614151562000c5557600460009054906101000a900473ffffffffffffffffffffffffffffffffffffffff1673ffffffffffffffffffffffffffffffffffffffff166338cc48316040518163ffffffff167c0100000000000000000000000000000000000000000000000000000000028152600401602060405180830381600087803b15801562000bd757600080fd5b505af115801562000bec573d6000803e3d6000fd5b505050506040513d602081101562000c0357600080fd5b8101908080519060200190929190505050600560006101000a81548173ffffffffffffffffffffffffffffffffffffffff021916908373ffffffffffffffffffffffffffffffffffffffff1602179055505b600560009054906101000a900473ffffffffffffffffffffffffffffffffffffffff1673ffffffffffffffffffffffffffffffffffffffff1663524f3889836040518263ffffffff167c01000000000000000000000000000000000000000000000000000000000281526004018080602001828103825283818151815260200191508051906020019080838360005b8381101562000d0157808201518184015260208101905062000ce4565b50505050905090810190601f16801562000d2f5780820380516001836020036101000a031916815260200191505b5092505050602060405180830381600087803b15801562000d4f57600080fd5b505af115801562000d64573d6000803e3d6000fd5b505050506040513d602081101562000d7b57600080fd5b81019080805190602001909291905050509050919050565b6000806000600460009054906101000a900473ffffffffffffffffffffffffffffffffffffffff1673ffffffffffffffffffffffffffffffffffffffff16148062000e195750600062000e17600460009054906101000a900473ffffffffffffffffffffffffffffffffffffffff1662001375640100000000026401000000009004565b145b1562000e3c5762000e3a600062001380640100000000026401000000009004565b505b600460009054906101000a900473ffffffffffffffffffffffffffffffffffffffff1673ffffffffffffffffffffffffffffffffffffffff166338cc48316040518163ffffffff167c0100000000000000000000000000000000000000000000000000000000028152600401602060405180830381600087803b15801562000ec357600080fd5b505af115801562000ed8573d6000803e3d6000fd5b505050506040513d602081101562000eef57600080fd5b810190808051906020019092919050505073ffffffffffffffffffffffffffffffffffffffff16600560009054906101000a900473ffffffffffffffffffffffffffffffffffffffff1673ffffffffffffffffffffffffffffffffffffffff161415156200105c57600460009054906101000a900473ffffffffffffffffffffffffffffffffffffffff1673ffffffffffffffffffffffffffffffffffffffff166338cc48316040518163ffffffff167c0100000000000000000000000000000000000000000000000000000000028152600401602060405180830381600087803b15801562000fde57600080fd5b505af115801562000ff3573d6000803e3d6000fd5b505050506040513d60208110156200100a57600080fd5b8101908080519060200190929190505050600560006101000a81548173ffffffffffffffffffffffffffffffffffffffff021916908373ffffffffffffffffffffffffffffffffffffffff1602179055505b600560009054906101000a900473ffffffffffffffffffffffffffffffffffffffff1673ffffffffffffffffffffffffffffffffffffffff1663524f3889856040518263ffffffff167c01000000000000000000000000000000000000000000000000000000000281526004018080602001828103825283818151815260200191508051906020019080838360005b8381101562001108578082015181840152602081019050620010eb565b50505050905090810190601f168015620011365780820380516001836020036101000a031916815260200191505b5092505050602060405180830381600087803b1580156200115657600080fd5b505af11580156200116b573d6000803e3d6000fd5b505050506040513d60208110156200118257600080fd5b8101908080519060200190929190505050905062030d403a02670de0b6b3a764000001811115620011ba57600060010291506200136e565b600560009054906101000a900473ffffffffffffffffffffffffffffffffffffffff1673ffffffffffffffffffffffffffffffffffffffff1663adf59f9982600087876040518563ffffffff167c0100000000000000000000000000000000000000000000000000000000028152600401808481526020018060200180602001838103835285818151815260200191508051906020019080838360005b838110156200127457808201518184015260208101905062001257565b50505050905090810190601f168015620012a25780820380516001836020036101000a031916815260200191505b50838103825284818151815260200191508051906020019080838360005b83811015620012dd578082015181840152602081019050620012c0565b50505050905090810190601f1680156200130b5780820380516001836020036101000a031916815260200191505b50955050505050506020604051808303818588803b1580156200132d57600080fd5b505af115801562001342573d6000803e3d6000fd5b50505050506040513d60208110156200135a57600080fd5b810190808051906020019092919050505091505b5092915050565b6000813b9050919050565b60006200139b620013a2640100000000026401000000009004565b9050919050565b600080620013d3731d3b2638a7cc9f2cb3d298a3da7a90b67e5506ed62001375640100000000026401000000009004565b11156200148857731d3b2638a7cc9f2cb3d298a3da7a90b67e5506ed600460006101000a81548173ffffffffffffffffffffffffffffffffffffffff021916908373ffffffffffffffffffffffffffffffffffffffff1602179055506200147e6040805190810160405280600b81526020017f6574685f6d61696e6e657400000000000000000000000000000000000000000081525062001901640100000000026401000000009004565b60019050620018fe565b6000620014b873c03a2615d5efaf5f49f60b7bb6583eaec212fdf162001375640100000000026401000000009004565b11156200156d5773c03a2615d5efaf5f49f60b7bb6583eaec212fdf1600460006101000a81548173ffffffffffffffffffffffffffffffffffffffff021916908373ffffffffffffffffffffffffffffffffffffffff160217905550620015636040805190810160405280600c81526020017f6574685f726f707374656e33000000000000000000000000000000000000000081525062001901640100000000026401000000009004565b60019050620018fe565b60006200159d73b7a07bcf2ba2f2703b24c0691b5278999c59ac7e62001375640100000000026401000000009004565b1115620016525773b7a07bcf2ba2f2703b24c0691b5278999c59ac7e600460006101000a81548173ffffffffffffffffffffffffffffffffffffffff021916908373ffffffffffffffffffffffffffffffffffffffff160217905550620016486040805190810160405280600981526020017f6574685f6b6f76616e000000000000000000000000000000000000000000000081525062001901640100000000026401000000009004565b60019050620018fe565b60006200168273146500cfd35b22e4a392fe0adc06de1a1368ed4862001375640100000000026401000000009004565b1115620017375773146500cfd35b22e4a392fe0adc06de1a1368ed48600460006101000a81548173ffffffffffffffffffffffffffffffffffffffff021916908373ffffffffffffffffffffffffffffffffffffffff1602179055506200172d6040805190810160405280600b81526020017f6574685f72696e6b65627900000000000000000000000000000000000000000081525062001901640100000000026401000000009004565b60019050620018fe565b600062001767736f485c8bf6fc43ea212e93bbf8ce046c7f1cb47562001375640100000000026401000000009004565b1115620017cd57736f485c8bf6fc43ea212e93bbf8ce046c7f1cb475600460006101000a81548173ffffffffffffffffffffffffffffffffffffffff021916908373ffffffffffffffffffffffffffffffffffffffff16021790555060019050620018fe565b6000620017fd7320e12a1f859b3feae5fb2a0a32c18f5a65555bbf62001375640100000000026401000000009004565b111562001863577320e12a1f859b3feae5fb2a0a32c18f5a65555bbf600460006101000a81548173ffffffffffffffffffffffffffffffffffffffff021916908373ffffffffffffffffffffffffffffffffffffffff16021790555060019050620018fe565b6000620018937351efaf4c8b3c9afbd5ab9f4bbc82784ab6ef8faa62001375640100000000026401000000009004565b1115620018f9577351efaf4c8b3c9afbd5ab9f4bbc82784ab6ef8faa600460006101000a81548173ffffffffffffffffffffffffffffffffffffffff021916908373ffffffffffffffffffffffffffffffffffffffff16021790555060019050620018fe565b600090505b90565b806006908051906020019062001919929190620019a4565b5050565b828054600181600116156101000203166002900490600052602060002090601f016020900481019282601f106200196057805160ff191683800117855562001991565b8280016001018555821562001991579182015b828111156200199057825182559160200191906001019062001973565b5b509050620019a0919062001a2b565b5090565b828054600181600116156101000203166002900490600052602060002090601f016020900481019282601f10620019e757805160ff191683800117855562001a18565b8280016001018555821562001a18579182015b8281111562001a17578251825591602001919060010190620019fa565b5b50905062001a27919062001a2b565b5090565b62001a5091905b8082111562001a4c57600081600090555060010162001a32565b5090565b90565b6125498062001a636000396000f3006080604052600436106100ae576000357c0100000000000000000000000000000000000000000000000000000000900463ffffffff168062493452146100b3578063010d20101461014357806312065fe01461024c57806327dc297e1461027757806338bbfa50146102ee5780633ff96222146103ab5780635197e70e146104185780635440d9b01461046f5780635a5e917e1461049a578063673a7e28146104c4578063b9c7a3b4146104ce575b600080fd5b3480156100bf57600080fd5b506100c8610694565b6040518080602001828103825283818151815260200191508051906020019080838360005b838110156101085780820151818401526020810190506100ed565b50505050905090810190601f1680156101355780820380516001836020036101000a031916815260200191505b509250505060405180910390f35b34801561014f57600080fd5b5061024a600480360381019080803590602001908201803590602001908080601f0160208091040260200160405190810160405280939291908181526020018383808284378201915050505050509192919290803590602001908201803590602001908080601f0160208091040260200160405190810160405280939291908181526020018383808284378201915050505050509192919290803590602001908201803590602001908080601f01602080910402602001604051908101604052809392919081815260200183838082843782019150505050505091929192908035906020019092919080359060200190929190505050610732565b005b34801561025857600080fd5b50610261610aeb565b6040518082815260200191505060405180910390f35b34801561028357600080fd5b506102ec6004803603810190808035600019169060200190929190803590602001908201803590602001908080601f0160208091040260200160405190810160405280939291908181526020018383808284378201915050505050509192919290505050610b0a565b005b3480156102fa57600080fd5b506103a96004803603810190808035600019169060200190929190803590602001908201803590602001908080601f0160208091040260200160405190810160405280939291908181526020018383808284378201915050505050509192919290803590602001908201803590602001908080601f0160208091040260200160405190810160405280939291908181526020018383808284378201915050505050509192919290505050610c02565b005b3480156103b757600080fd5b506103d660048036038101908080359060200190929190505050610c07565b604051808273ffffffffffffffffffffffffffffffffffffffff1673ffffffffffffffffffffffffffffffffffffffff16815260200191505060405180910390f35b34801561042457600080fd5b50610459600480360381019080803573ffffffffffffffffffffffffffffffffffffffff169060200190929190505050610c3a565b6040518082815260200191505060405180910390f35b34801561047b57600080fd5b50610484610c52565b6040518082815260200191505060405180910390f35b6104c26004803603810190808035906020019092919080359060200190929190505050610c5f565b005b6104cc610daf565b005b3480156104da57600080fd5b506104f960048036038101908080359060200190929190505050611017565b604051808873ffffffffffffffffffffffffffffffffffffffff1673ffffffffffffffffffffffffffffffffffffffff16815260200180602001806020018060200187815260200186815260200185815260200184810384528a818151815260200191508051906020019080838360005b8381101561058557808201518184015260208101905061056a565b50505050905090810190601f1680156105b25780820380516001836020036101000a031916815260200191505b50848103835289818151815260200191508051906020019080838360005b838110156105eb5780820151818401526020810190506105d0565b50505050905090810190601f1680156106185780820380516001836020036101000a031916815260200191505b50848103825288818151815260200191508051906020019080838360005b83811015610651578082015181840152602081019050610636565b50505050905090810190601f16801561067e5780820380516001836020036101000a031916815260200191505b509a505050505050505050505060405180910390f35b600a8054600181600116156101000203166002900480601f01602080910402602001604051908101604052809291908181526020018280546001816001161561010002031660029004801561072a5780601f106106ff5761010080835404028352916020019161072a565b820191906000526020600020905b81548152906001019060200180831161070d57829003601f168201915b505050505081565b600060018060e0604051908101604052803373ffffffffffffffffffffffffffffffffffffffff1681526020018981526020018881526020018781526020018681526020018581526020016000548152509080600181540180825580915050906001820390600052602060002090600702016000909192909190915060008201518160000160006101000a81548173ffffffffffffffffffffffffffffffffffffffff021916908373ffffffffffffffffffffffffffffffffffffffff16021790555060208201518160010190805190602001906108119291906123f8565b50604082015181600201908051906020019061082e9291906123f8565b50606082015181600301908051906020019061084b9291906123f8565b506080820151816004015560a0820151816005015560c082015181600601555050039050336002600083815260200190815260200160002060006101000a81548173ffffffffffffffffffffffffffffffffffffffff021916908373ffffffffffffffffffffffffffffffffffffffff160217905550600360003373ffffffffffffffffffffffffffffffffffffffff1673ffffffffffffffffffffffffffffffffffffffff1681526020019081526020016000206000815480929190600101919050555060008081548092919060010191905055507f481e04a8bbe082f51b05cbee66e189f0f5d4c055e46872d1c76d16c782be362881338888888888604051808881526020018773ffffffffffffffffffffffffffffffffffffffff1673ffffffffffffffffffffffffffffffffffffffff168152602001806020018060200180602001868152602001858152602001848103845289818151815260200191508051906020019080838360005b838110156109d55780820151818401526020810190506109ba565b50505050905090810190601f168015610a025780820380516001836020036101000a031916815260200191505b50848103835288818151815260200191508051906020019080838360005b83811015610a3b578082015181840152602081019050610a20565b50505050905090810190601f168015610a685780820380516001836020036101000a031916815260200191505b50848103825287818151815260200191508051906020019080838360005b83811015610aa1578082015181840152602081019050610a86565b50505050905090810190601f168015610ace5780820380516001836020036101000a031916815260200191505b509a505050505050505050505060405180910390a1505050505050565b60003073ffffffffffffffffffffffffffffffffffffffff1631905090565b610b12611250565b73ffffffffffffffffffffffffffffffffffffffff163373ffffffffffffffffffffffffffffffffffffffff16141515610b4b57600080fd5b80600a9080519060200190610b61929190612478565b507f71f1a5645e51a2da828ffcf79cc17da88eb25e1bca8b9dced23210847a4769c1816040518080602001828103825283818151815260200191508051906020019080838360005b83811015610bc4578082015181840152602081019050610ba9565b50505050905090810190601f168015610bf15780820380516001836020036101000a031916815260200191505b509250505060405180910390a15050565b505050565b60026020528060005260406000206000915054906101000a900473ffffffffffffffffffffffffffffffffffffffff1681565b60036020528060005260406000206000915090505481565b6000600180549050905090565b6000600183815481101515610c7057fe5b9060005260206000209060070201600401541415610cf5577f71f1a5645e51a2da828ffcf79cc17da88eb25e1bca8b9dced23210847a4769c160405180806020018281038252601e8152602001807f546865726520617265206e6f207469636b65747320617661696c61626c65000081525060200191505060405180910390a1610dab565b8034141515610d0357600080fd5b600182815481101515610d1257fe5b906000526020600020906007020160000160009054906101000a900473ffffffffffffffffffffffffffffffffffffffff1673ffffffffffffffffffffffffffffffffffffffff166108fc349081150290604051600060405180830381858888f1935050505050600182815481101515610d8857fe5b906000526020600020906007020160040160008154809291906001900391905055505b5050565b3073ffffffffffffffffffffffffffffffffffffffff1631610e056040805190810160405280600381526020017f55524c00000000000000000000000000000000000000000000000000000000008152506115b2565b1115610ec4577f621c2856e3b87f81235f8ac8a22bbb40a0142961960710d00b2b6c380902b57e60405180806020018281038252604b8152602001807f4f7261636c697a6520717565727920776173204e4f542073656e742c20706c6581526020017f6173652061646420736f6d652045544820746f20636f76657220666f7220746881526020017f652071756572792066656500000000000000000000000000000000000000000081525060600191505060405180910390a1611015565b7f621c2856e3b87f81235f8ac8a22bbb40a0142961960710d00b2b6c380902b57e6040518080602001828103825260358152602001807f4f7261636c697a65207175657279207761732073656e742c207374616e64696e81526020017f6720627920666f722074686520616e737765722e2e000000000000000000000081525060400191505060405180910390a16110136040805190810160405280600381526020017f55524c0000000000000000000000000000000000000000000000000000000000815250608060405190810160405280604181526020017f6a736f6e2868747470733a2f2f6170692e636f696e626173652e636f6d2f763281526020017f2f7072696365732f4554482d5553442f73706f74292e646174612e616d6f756e81526020017f7400000000000000000000000000000000000000000000000000000000000000815250611986565b505b565b60018181548110151561102657fe5b90600052602060002090600702016000915090508060000160009054906101000a900473ffffffffffffffffffffffffffffffffffffffff1690806001018054600181600116156101000203166002900480601f0160208091040260200160405190810160405280929190818152602001828054600181600116156101000203166002900480156110f85780601f106110cd576101008083540402835291602001916110f8565b820191906000526020600020905b8154815290600101906020018083116110db57829003601f168201915b505050505090806002018054600181600116156101000203166002900480601f0160208091040260200160405190810160405280929190818152602001828054600181600116156101000203166002900480156111965780601f1061116b57610100808354040283529160200191611196565b820191906000526020600020905b81548152906001019060200180831161117957829003601f168201915b505050505090806003018054600181600116156101000203166002900480601f0160208091040260200160405190810160405280929190818152602001828054600181600116156101000203166002900480156112345780601f1061120957610100808354040283529160200191611234565b820191906000526020600020905b81548152906001019060200180831161121757829003601f168201915b5050505050908060040154908060050154908060060154905087565b600080600460009054906101000a900473ffffffffffffffffffffffffffffffffffffffff1673ffffffffffffffffffffffffffffffffffffffff1614806112c2575060006112c0600460009054906101000a900473ffffffffffffffffffffffffffffffffffffffff16611f2c565b145b156112d3576112d16000611f37565b505b600460009054906101000a900473ffffffffffffffffffffffffffffffffffffffff1673ffffffffffffffffffffffffffffffffffffffff166338cc48316040518163ffffffff167c0100000000000000000000000000000000000000000000000000000000028152600401602060405180830381600087803b15801561135957600080fd5b505af115801561136d573d6000803e3d6000fd5b505050506040513d602081101561138357600080fd5b810190808051906020019092919050505073ffffffffffffffffffffffffffffffffffffffff16600560009054906101000a900473ffffffffffffffffffffffffffffffffffffffff1673ffffffffffffffffffffffffffffffffffffffff161415156114ec57600460009054906101000a900473ffffffffffffffffffffffffffffffffffffffff1673ffffffffffffffffffffffffffffffffffffffff166338cc48316040518163ffffffff167c0100000000000000000000000000000000000000000000000000000000028152600401602060405180830381600087803b15801561147057600080fd5b505af1158015611484573d6000803e3d6000fd5b505050506040513d602081101561149a57600080fd5b8101908080519060200190929190505050600560006101000a81548173ffffffffffffffffffffffffffffffffffffffff021916908373ffffffffffffffffffffffffffffffffffffffff1602179055505b600560009054906101000a900473ffffffffffffffffffffffffffffffffffffffff1673ffffffffffffffffffffffffffffffffffffffff1663c281d19e6040518163ffffffff167c0100000000000000000000000000000000000000000000000000000000028152600401602060405180830381600087803b15801561157257600080fd5b505af1158015611586573d6000803e3d6000fd5b505050506040513d602081101561159c57600080fd5b8101908080519060200190929190505050905090565b600080600460009054906101000a900473ffffffffffffffffffffffffffffffffffffffff1673ffffffffffffffffffffffffffffffffffffffff16148061162457506000611622600460009054906101000a900473ffffffffffffffffffffffffffffffffffffffff16611f2c565b145b15611635576116336000611f37565b505b600460009054906101000a900473ffffffffffffffffffffffffffffffffffffffff1673ffffffffffffffffffffffffffffffffffffffff166338cc48316040518163ffffffff167c0100000000000000000000000000000000000000000000000000000000028152600401602060405180830381600087803b1580156116bb57600080fd5b505af11580156116cf573d6000803e3d6000fd5b505050506040513d60208110156116e557600080fd5b810190808051906020019092919050505073ffffffffffffffffffffffffffffffffffffffff16600560009054906101000a900473ffffffffffffffffffffffffffffffffffffffff1673ffffffffffffffffffffffffffffffffffffffff1614151561184e57600460009054906101000a900473ffffffffffffffffffffffffffffffffffffffff1673ffffffffffffffffffffffffffffffffffffffff166338cc48316040518163ffffffff167c0100000000000000000000000000000000000000000000000000000000028152600401602060405180830381600087803b1580156117d257600080fd5b505af11580156117e6573d6000803e3d6000fd5b505050506040513d60208110156117fc57600080fd5b8101908080519060200190929190505050600560006101000a81548173ffffffffffffffffffffffffffffffffffffffff021916908373ffffffffffffffffffffffffffffffffffffffff1602179055505b600560009054906101000a900473ffffffffffffffffffffffffffffffffffffffff1673ffffffffffffffffffffffffffffffffffffffff1663524f3889836040518263ffffffff167c01000000000000000000000000000000000000000000000000000000000281526004018080602001828103825283818151815260200191508051906020019080838360005b838110156118f85780820151818401526020810190506118dd565b50505050905090810190601f1680156119255780820380516001836020036101000a031916815260200191505b5092505050602060405180830381600087803b15801561194457600080fd5b505af1158015611958573d6000803e3d6000fd5b505050506040513d602081101561196e57600080fd5b81019080805190602001909291905050509050919050565b6000806000600460009054906101000a900473ffffffffffffffffffffffffffffffffffffffff1673ffffffffffffffffffffffffffffffffffffffff1614806119fa575060006119f8600460009054906101000a900473ffffffffffffffffffffffffffffffffffffffff16611f2c565b145b15611a0b57611a096000611f37565b505b600460009054906101000a900473ffffffffffffffffffffffffffffffffffffffff1673ffffffffffffffffffffffffffffffffffffffff166338cc48316040518163ffffffff167c0100000000000000000000000000000000000000000000000000000000028152600401602060405180830381600087803b158015611a9157600080fd5b505af1158015611aa5573d6000803e3d6000fd5b505050506040513d6020811015611abb57600080fd5b810190808051906020019092919050505073ffffffffffffffffffffffffffffffffffffffff16600560009054906101000a900473ffffffffffffffffffffffffffffffffffffffff1673ffffffffffffffffffffffffffffffffffffffff16141515611c2457600460009054906101000a900473ffffffffffffffffffffffffffffffffffffffff1673ffffffffffffffffffffffffffffffffffffffff166338cc48316040518163ffffffff167c0100000000000000000000000000000000000000000000000000000000028152600401602060405180830381600087803b158015611ba857600080fd5b505af1158015611bbc573d6000803e3d6000fd5b505050506040513d6020811015611bd257600080fd5b8101908080519060200190929190505050600560006101000a81548173ffffffffffffffffffffffffffffffffffffffff021916908373ffffffffffffffffffffffffffffffffffffffff1602179055505b600560009054906101000a900473ffffffffffffffffffffffffffffffffffffffff1673ffffffffffffffffffffffffffffffffffffffff1663524f3889856040518263ffffffff167c01000000000000000000000000000000000000000000000000000000000281526004018080602001828103825283818151815260200191508051906020019080838360005b83811015611cce578082015181840152602081019050611cb3565b50505050905090810190601f168015611cfb5780820380516001836020036101000a031916815260200191505b5092505050602060405180830381600087803b158015611d1a57600080fd5b505af1158015611d2e573d6000803e3d6000fd5b505050506040513d6020811015611d4457600080fd5b8101908080519060200190929190505050905062030d403a02670de0b6b3a764000001811115611d7a5760006001029150611f25565b600560009054906101000a900473ffffffffffffffffffffffffffffffffffffffff1673ffffffffffffffffffffffffffffffffffffffff1663adf59f9982600087876040518563ffffffff167c0100000000000000000000000000000000000000000000000000000000028152600401808481526020018060200180602001838103835285818151815260200191508051906020019080838360005b83811015611e32578082015181840152602081019050611e17565b50505050905090810190601f168015611e5f5780820380516001836020036101000a031916815260200191505b50838103825284818151815260200191508051906020019080838360005b83811015611e98578082015181840152602081019050611e7d565b50505050905090810190601f168015611ec55780820380516001836020036101000a031916815260200191505b50955050505050506020604051808303818588803b158015611ee657600080fd5b505af1158015611efa573d6000803e3d6000fd5b50505050506040513d6020811015611f1157600080fd5b810190808051906020019092919050505091505b5092915050565b6000813b9050919050565b6000611f41611f48565b9050919050565b600080611f68731d3b2638a7cc9f2cb3d298a3da7a90b67e5506ed611f2c565b111561200a57731d3b2638a7cc9f2cb3d298a3da7a90b67e5506ed600460006101000a81548173ffffffffffffffffffffffffffffffffffffffff021916908373ffffffffffffffffffffffffffffffffffffffff1602179055506120016040805190810160405280600b81526020017f6574685f6d61696e6e65740000000000000000000000000000000000000000008152506123de565b600190506123db565b600061202973c03a2615d5efaf5f49f60b7bb6583eaec212fdf1611f2c565b11156120cb5773c03a2615d5efaf5f49f60b7bb6583eaec212fdf1600460006101000a81548173ffffffffffffffffffffffffffffffffffffffff021916908373ffffffffffffffffffffffffffffffffffffffff1602179055506120c26040805190810160405280600c81526020017f6574685f726f707374656e3300000000000000000000000000000000000000008152506123de565b600190506123db565b60006120ea73b7a07bcf2ba2f2703b24c0691b5278999c59ac7e611f2c565b111561218c5773b7a07bcf2ba2f2703b24c0691b5278999c59ac7e600460006101000a81548173ffffffffffffffffffffffffffffffffffffffff021916908373ffffffffffffffffffffffffffffffffffffffff1602179055506121836040805190810160405280600981526020017f6574685f6b6f76616e00000000000000000000000000000000000000000000008152506123de565b600190506123db565b60006121ab73146500cfd35b22e4a392fe0adc06de1a1368ed48611f2c565b111561224d5773146500cfd35b22e4a392fe0adc06de1a1368ed48600460006101000a81548173ffffffffffffffffffffffffffffffffffffffff021916908373ffffffffffffffffffffffffffffffffffffffff1602179055506122446040805190810160405280600b81526020017f6574685f72696e6b6562790000000000000000000000000000000000000000008152506123de565b600190506123db565b600061226c736f485c8bf6fc43ea212e93bbf8ce046c7f1cb475611f2c565b11156122d057736f485c8bf6fc43ea212e93bbf8ce046c7f1cb475600460006101000a81548173ffffffffffffffffffffffffffffffffffffffff021916908373ffffffffffffffffffffffffffffffffffffffff160217905550600190506123db565b60006122ef7320e12a1f859b3feae5fb2a0a32c18f5a65555bbf611f2c565b1115612353577320e12a1f859b3feae5fb2a0a32c18f5a65555bbf600460006101000a81548173ffffffffffffffffffffffffffffffffffffffff021916908373ffffffffffffffffffffffffffffffffffffffff160217905550600190506123db565b60006123727351efaf4c8b3c9afbd5ab9f4bbc82784ab6ef8faa611f2c565b11156123d6577351efaf4c8b3c9afbd5ab9f4bbc82784ab6ef8faa600460006101000a81548173ffffffffffffffffffffffffffffffffffffffff021916908373ffffffffffffffffffffffffffffffffffffffff160217905550600190506123db565b600090505b90565b80600690805190602001906123f4929190612478565b5050565b828054600181600116156101000203166002900490600052602060002090601f016020900481019282601f1061243957805160ff1916838001178555612467565b82800160010185558215612467579182015b8281111561246657825182559160200191906001019061244b565b5b50905061247491906124f8565b5090565b828054600181600116156101000203166002900490600052602060002090601f016020900481019282601f106124b957805160ff19168380011785556124e7565b828001600101855582156124e7579182015b828111156124e65782518255916020019190600101906124cb565b5b5090506124f491906124f8565b5090565b61251a91905b808211156125165760008160009055506001016124fe565b5090565b905600a165627a7a7230582063af0b713342b75e7c44c6f5eb972e8cc9250d62db7ebf418b16cc39f2fcb3b1002968747470733a2f2f63646e2e766f782d63646e2e636f6d2f7468756d626f722f4c3957573153696c6842353768434635786231666e4170797459633d2f343378303a353736783335352f31323030783830302f66696c746572733a666f63616c28343378303a35373678333535292f63646e2e766f782d63646e2e636f6d2f6173736574732f323430373035372f544544785f6c6f676f2d363230783335352e706e67",
  "source": "pragma solidity ^0.4.2;\r\nimport \"./Event.sol\";\r\nimport \"./usingOraclize.sol\";\r\n\r\ncontract Transaction is Event, usingOraclize {\r\n\r\n    address owner;\r\n    string public ETHUSDSTRING;\r\n\r\n    event LogPriceUpdated(string price);\r\n    event LogNewOraclizeQuery(string description);\r\n    event LogUpdate(address indexed _owner, uint indexed _balance);\r\n\r\n    event NoTickets (string noTickets);\r\n\r\n    //Constructor\r\n    function Transaction() payable public{\r\n        owner = msg.sender;\r\n        emit LogUpdate(owner, address(this).balance);\r\n        OAR = OraclizeAddrResolverI(0x6f485C8BF6fc43eA212E93BBF8ce046C7f1cb475);\r\n        updatePrice();\r\n    }\r\n\r\n    function __callback(bytes32 myid, string result){\r\n        if (msg.sender != oraclize_cbAddress()) revert();\r\n        ETHUSDSTRING = result;\r\n        emit LogPriceUpdated(result);\r\n/*        updatePrice();*/\r\n    }\r\n    function getBalance() public returns (uint _balance) {\r\n        return address(this).balance;\r\n    }\r\n\r\n    // get current price of ETH in USD from kraken\r\n    function updatePrice() payable public {\r\n        if (oraclize_getPrice(\"URL\") > address(this).balance) {\r\n            LogNewOraclizeQuery(\"Oraclize query was NOT sent, please add some ETH to cover for the query fee\");\r\n        } else {\r\n            LogNewOraclizeQuery(\"Oraclize query was sent, standing by for the answer..\");\r\n            oraclize_query(\"URL\", \"json(https://api.coinbase.com/v2/prices/ETH-USD/spot).data.amount\");\r\n        }\r\n    }\r\n\r\n    function _buyTicket(uint _eventId, uint moneyToTransfer) external payable {\r\n        if(eventArray[_eventId].ticketsToSale == 0){\r\n            emit LogPriceUpdated(\"There are no tickets available\");\r\n        }\r\n        else{\r\n            require(msg.value == moneyToTransfer);\r\n            eventArray[_eventId].owner.send(msg.value);\r\n            eventArray[_eventId].ticketsToSale --;\r\n        }\r\n\r\n    }\r\n\r\n}",
  "sourcePath": "C:\\Users\\petri\\Desktop\\CryptoTickets\\contracts\\Transaction.sol",
  "compiler": {
    "name": "solc",
    "version": "0.4.24+commit.e67f0147.Emscripten.clang"
  },
  "schemaVersion": "2.0.1",
  "updatedAt": "2019-02-08T00:58:34.572Z"
}