{
  "contractName": "UserType",
  "abi": [
    {
      "constant": true,
      "inputs": [
        {
          "name": "",
          "type": "address"
        }
      ],
      "name": "users",
      "outputs": [
        {
          "name": "owner",
          "type": "address"
        },
        {
          "name": "accountType",
          "type": "uint8"
        },
        {
          "name": "username",
          "type": "string"
        },
        {
          "name": "email",
          "type": "bytes32"
        }
      ],
      "payable": false,
      "stateMutability": "view",
      "type": "function"
    },
    {
      "inputs": [],
      "payable": true,
      "stateMutability": "payable",
      "type": "constructor"
    },
    {
      "constant": false,
      "inputs": [
        {
          "name": "_accountType",
          "type": "uint8"
        },
        {
          "name": "_username",
          "type": "string"
        },
        {
          "name": "_email",
          "type": "bytes32"
        }
      ],
      "name": "registerNewUser",
      "outputs": [],
      "payable": false,
      "stateMutability": "nonpayable",
      "type": "function"
    },
    {
      "constant": false,
      "inputs": [
        {
          "name": "_badUser",
          "type": "address"
        }
      ],
      "name": "removeUser",
      "outputs": [
        {
          "name": "success",
          "type": "bool"
        }
      ],
      "payable": false,
      "stateMutability": "nonpayable",
      "type": "function"
    },
    {
      "constant": true,
      "inputs": [],
      "name": "accountType",
      "outputs": [
        {
          "name": "",
          "type": "uint256"
        }
      ],
      "payable": false,
      "stateMutability": "view",
      "type": "function"
    },
    {
      "constant": true,
      "inputs": [],
      "name": "hasAccount",
      "outputs": [
        {
          "name": "",
          "type": "bool"
        }
      ],
      "payable": false,
      "stateMutability": "view",
      "type": "function"
    },
    {
      "constant": true,
      "inputs": [],
      "name": "getUsername",
      "outputs": [
        {
          "name": "",
          "type": "string"
        }
      ],
      "payable": false,
      "stateMutability": "view",
      "type": "function"
    }
  ],
  "bytecode": "0x608060405233600160006101000a81548173ffffffffffffffffffffffffffffffffffffffff021916908373ffffffffffffffffffffffffffffffffffffffff160217905550610b37806100546000396000f300608060405260043610610078576000357c0100000000000000000000000000000000000000000000000000000000900463ffffffff168063061887bf1461007d578063681f3e6d146100d35780638f76a3801461016357806395eec3c91461019257806398575188146101bd578063a87430ba14610218575b600080fd5b34801561008957600080fd5b506100d1600480360381019080803560ff1690602001909291908035906020019082018035906020019190919293919293908035600019169060200190929190505050610323565b005b3480156100df57600080fd5b506100e8610632565b6040518080602001828103825283818151815260200191508051906020019080838360005b8381101561012857808201518184015260208101905061010d565b50505050905090810190601f1680156101555780820380516001836020036101000a031916815260200191505b509250505060405180910390f35b34801561016f57600080fd5b506101786107b0565b604051808215151515815260200191505060405180910390f35b34801561019e57600080fd5b506101a76107d3565b6040518082815260200191505060405180910390f35b3480156101c957600080fd5b506101fe600480360381019080803573ffffffffffffffffffffffffffffffffffffffff16906020019092919050505061082d565b604051808215151515815260200191505060405180910390f35b34801561022457600080fd5b50610259600480360381019080803573ffffffffffffffffffffffffffffffffffffffff169060200190929190505050610929565b604051808573ffffffffffffffffffffffffffffffffffffffff1673ffffffffffffffffffffffffffffffffffffffff1681526020018460ff1660ff168152602001806020018360001916600019168152602001828103825284818151815260200191508051906020019080838360005b838110156102e55780820151818401526020810190506102ca565b50505050905090810190601f1680156103125780820380516001836020036101000a031916815260200191505b509550505050505060405180910390f35b3373ffffffffffffffffffffffffffffffffffffffff16600260003373ffffffffffffffffffffffffffffffffffffffff1673ffffffffffffffffffffffffffffffffffffffff16815260200190815260200160002060000160009054906101000a900473ffffffffffffffffffffffffffffffffffffffff1673ffffffffffffffffffffffffffffffffffffffff16141515156103c057600080fd5b6000600260003373ffffffffffffffffffffffffffffffffffffffff1673ffffffffffffffffffffffffffffffffffffffff16815260200190815260200160002060010180546001816001161561010002031660029004905014801561042a575060008383905014155b1561062c57600015156003848460405180838380828437820191505092505050908152602001604051809103902060009054906101000a900460ff16151514151561047457600080fd5b33600260003373ffffffffffffffffffffffffffffffffffffffff1673ffffffffffffffffffffffffffffffffffffffff16815260200190815260200160002060000160006101000a81548173ffffffffffffffffffffffffffffffffffffffff021916908373ffffffffffffffffffffffffffffffffffffffff16021790555083600260003373ffffffffffffffffffffffffffffffffffffffff1673ffffffffffffffffffffffffffffffffffffffff16815260200190815260200160002060000160146101000a81548160ff021916908360ff1602179055508282600260003373ffffffffffffffffffffffffffffffffffffffff1673ffffffffffffffffffffffffffffffffffffffff16815260200190815260200160002060010191906105a1929190610a1e565b5080600260003373ffffffffffffffffffffffffffffffffffffffff1673ffffffffffffffffffffffffffffffffffffffff168152602001908152602001600020600201816000191690555060016003848460405180838380828437820191505092505050908152602001604051809103902060006101000a81548160ff0219169083151502179055505b50505050565b60603373ffffffffffffffffffffffffffffffffffffffff16600260003373ffffffffffffffffffffffffffffffffffffffff1673ffffffffffffffffffffffffffffffffffffffff16815260200190815260200160002060000160009054906101000a900473ffffffffffffffffffffffffffffffffffffffff1673ffffffffffffffffffffffffffffffffffffffff161415156106d057600080fd5b600260003373ffffffffffffffffffffffffffffffffffffffff1673ffffffffffffffffffffffffffffffffffffffff1681526020019081526020016000206001018054600181600116156101000203166002900480601f0160208091040260200160405190810160405280929190818152602001828054600181600116156101000203166002900480156107a65780601f1061077b576101008083540402835291602001916107a6565b820191906000526020600020905b81548152906001019060200180831161078957829003601f168201915b5050505050905090565b6000806001905060006107c16107d3565b14156107cc57600090505b8091505090565b6000600260003373ffffffffffffffffffffffffffffffffffffffff1673ffffffffffffffffffffffffffffffffffffffff16815260200190815260200160002060000160149054906101000a900460ff1660ff16905090565b6000600160009054906101000a900473ffffffffffffffffffffffffffffffffffffffff1673ffffffffffffffffffffffffffffffffffffffff163373ffffffffffffffffffffffffffffffffffffffff1614151561088b57600080fd5b600260008373ffffffffffffffffffffffffffffffffffffffff1673ffffffffffffffffffffffffffffffffffffffff168152602001908152602001600020600080820160006101000a81549073ffffffffffffffffffffffffffffffffffffffff02191690556000820160146101000a81549060ff02191690556001820160006109169190610a9e565b6002820160009055505060019050919050565b60026020528060005260406000206000915090508060000160009054906101000a900473ffffffffffffffffffffffffffffffffffffffff16908060000160149054906101000a900460ff1690806001018054600181600116156101000203166002900480601f016020809104026020016040519081016040528092919081815260200182805460018160011615610100020316600290048015610a0e5780601f106109e357610100808354040283529160200191610a0e565b820191906000526020600020905b8154815290600101906020018083116109f157829003601f168201915b5050505050908060020154905084565b828054600181600116156101000203166002900490600052602060002090601f016020900481019282601f10610a5f57803560ff1916838001178555610a8d565b82800160010185558215610a8d579182015b82811115610a8c578235825591602001919060010190610a71565b5b509050610a9a9190610ae6565b5090565b50805460018160011615610100020316600290046000825580601f10610ac45750610ae3565b601f016020900490600052602060002090810190610ae29190610ae6565b5b50565b610b0891905b80821115610b04576000816000905550600101610aec565b5090565b905600a165627a7a723058203374e2ab35ccf489e0cbd489e074da7b4a7564a11f7f29835d117524f5cb05760029",
  "source": "pragma solidity ^0.4.24;\r\n\r\ncontract UserType {\r\n    address admin;\r\n    address contractAdmin;\r\n\r\n    struct User {\r\n        address owner;\r\n        uint8 accountType; // 0 empty(no account), 1 for user, 2 for eventManager\r\n        string username; // unique\r\n        bytes32 email;\r\n    }\r\n\r\n    mapping(address => User) public users;\r\n    mapping(string => bool) private usersNames;\r\n\r\n    constructor() payable {// this is the CONSTRUCTOR (same name as contract) it gets called ONCE only when contract is first deployed\r\n        contractAdmin = msg.sender;\r\n        // just set the admin, so they can remove bad users or images if needed, but nobody else can\r\n        /*registerNewUser(1,\"Iulia\",\"petria_iulia@yahoo.com\");*/\r\n    }\r\n\r\n    function registerNewUser(uint8 _accountType, string _username, bytes32 _email) external {\r\n        require(users[msg.sender].owner != msg.sender); // check if it has an account already\r\n        if (bytes(users[msg.sender].username).length == 0 && bytes(_username).length != 0) {\r\n            require(usersNames[_username] == false);\r\n            users[msg.sender].owner = msg.sender;\r\n            users[msg.sender].accountType = _accountType;\r\n            users[msg.sender].username = _username;\r\n            users[msg.sender].email = _email;\r\n            usersNames[_username] = true;\r\n        }\r\n    }\r\n\r\n    modifier onlyAdmin() {\r\n        if (msg.sender != contractAdmin)\r\n            throw;\r\n        // \"_;\" will be replaced by the actual function body when the modifier is used.\r\n        _;\r\n    }\r\n\r\n    modifier onlyUserOwner() {\r\n        require(users[msg.sender].owner == msg.sender);\r\n        _;\r\n    }\r\n    // admin of contract can remove users\r\n    function removeUser(address _badUser) external onlyAdmin returns (bool success) {\r\n        delete users[_badUser];\r\n        return true;\r\n    }\r\n\r\n    function accountType() public view returns (uint){\r\n        return users[msg.sender].accountType;\r\n    }\r\n\r\n    function hasAccount() external view returns (bool){\r\n        bool value = true;\r\n        if (accountType() == 0) {\r\n            value = false;\r\n        }\r\n        return value;\r\n    }\r\n\r\n    function getUsername() external onlyUserOwner view returns (string){\r\n        return users[msg.sender].username;\r\n    }\r\n}\r\n\r\n",
  "sourcePath": "C:\\Users\\petri\\Desktop\\CryptoTickets\\contracts\\UserType.sol",
  "compiler": {
    "name": "solc",
    "version": "0.4.24+commit.e67f0147.Emscripten.clang"
  },
  "schemaVersion": "2.0.1",
  "updatedAt": "2019-05-02T09:46:29.504Z"
}